:020000040800F2
:10000000400E0020F101000849800008556F0008EB
:10001000A17F0008D5070008E19E0008000000004D
:10002000000000000000000000000000F58800084B
:10003000A116000800000000158100082D8E0008A0
:100040000B0200080B0200080B0200080B0200085C
:100050000B0200080B0200080B0200080B0200084C
:100060000B0200080B0200080B020008E514000850
:10007000411500080B0200080B0200080B020008E3
:100080000B0200080B0200080B0200080B0200081C
:100090000B020008E91600080B0200080B0200081A
:1000A0000B0200080B0200080B0200080B020008FC
:1000B0000B0200080B0200080B0200080B020008EC
:1000C0000B0200080B0200080B0200080B020008DC
:1000D0000B0200080B0200080B020008819E0008BA
:1000E0000B0200080B0200080B0200080B020008BC
:1000F0000B0200080B0200080B0200080B020008AC
:100100000B0200080B0200080B0200080B0200089B
:100110000B0200080B0200080B0200080B0200088B
:100120000B0200080B0200080B0200080B0200087B
:100130000B0200080B0200080B0200080B0200086B
:10014000350B00080B0200080B0200080B02000828
:100150000B0200080B0200080B0200080B0200084B
:100160000B0200080B0200080B0200080B0200083B
:100170000B0200080B0200080B0200080B0200082B
:100180000B0200080B0200080B0200080B0200081B
:100190000B020008000000000B0200080B02000820
:1001A0000B0200080B0200080B0200080B020008FB
:1001B0000B0200080B0200080B0200080B020008EB
:1001C0000B0200080B0200080B0200080B020008DB
:1001D0000B0200080B020008DFF810D000F08EF8C8
:1001E0000048004705A20008AFF30080400E002041
:1001F0000648804706480047FEE7FEE7FEE7FEE7C1
:10020000FEE7FEE7FEE7FEE7FEE7FEE7A18E000859
:10021000D90100082DE9F05F0546002092469B4673
:1002200088460646814640241BE02846414647460C
:10023000224600F053F853465A46C01A914110D353
:1002400011461846224600F03AF82D1A67EB0108CD
:100250004F4622460120002100F031F817EB00093B
:100260004E41201EA4F10104DFDC484631462A46F7
:100270004346BDE8F09F40EA01039B0703D009E035
:1002800008C9121F08C0042AFAD203E011F8013B82
:1002900000F8013B521EF9D27047D2B201E000F8DB
:1002A000012B491EFBD270470022F6E710B513461A
:1002B0000A4604461946FFF7F0FF204610BD202AE3
:1002C00004DB203A00FA02F1002070479140C2F1AD
:1002D000200320FA03F3194390407047202A04DBDF
:1002E000203A21FA02F00021704721FA02F3D040AF
:1002F000C2F120029140084319467047064C074D51
:1003000006E0E06840F0010394E8070098471034E5
:10031000AC42F6D3FFF764FFE0B4000800B5000874
:100320002A48008800EE900AF8EE600AB0EE600AF3
:10033000DFED270A60EE200A9FED261AC0EE811A33
:100340002548C0ED001A2148408800EE900AF8EEDA
:10035000600AB0EE600ADFED1E0A60EE200A9FED33
:100360001D1AC0EE811A1C48C0ED011A174880887A
:1003700000EE900AF8EE600AB0EE600ADFED170AB0
:1003800060EE200A9FED131AC0EE811A1248C0EDEC
:10039000031AD0ED040A9FED121A60EE810A90ED67
:1003A000031ADFED101A41EE210AC0ED040AD0ED68
:1003B000020A9FED0B1A60EE810A90ED011ADFED43
:1003C000091A41EE210AC0ED020A7047780900209F
:1003D00099998A4200F07F4520090020000084425C
:1003E00077BE7F3F6F12833A10B52DED028B6949BE
:1003F00008880AF0E1FC00EE100AB8EE400A6648F0
:1004000080ED080A634948880AF0D6FC00EE100A1D
:10041000B8EE400A604880ED090A5E4988880AF013
:10042000CBFC00EE100AB8EE400A5B4880ED0A0AE9
:100430005A4908890AF0C0FC00EE100AB8EE400ADA
:10044000554880ED0B0A5348C08800EE100AB8EEFC
:10045000400ADFED530A20EE200ADFED520A80EE5B
:10046000201A4D4880ED0C1A4A48008900EE100A07
:10047000B8EE400ADFED4A0A20EE200ADFED490A15
:1004800080EE201A444880ED0D1A4248408900EE63
:10049000100AB8EE400ADFED420A20EE200ADFED36
:1004A000410A80EE201A3C4880ED0E1A39488089B6
:1004B00000EE100AB8EE400ADFED390A20EE200AFD
:1004C000DFED380A80EE201A334880ED0F1A3148EC
:1004D000C489B4F5907F02DD012033490880324899
:1004E000008810B1142C00DA00242A48C08900EEDC
:1004F000100AB8EE400ADFED2D0A20EE200ADFEDEB
:10050000290A80EE201A244880ED051AB4F5807F70
:1005100009DD90ED050AF7EE000AB4EEE00AF1EE0F
:1005200010FA00D200242048008850B11A4890EDFB
:10053000050AF7EE000AB4EEE00AF1EE10FA00D276
:100540000024154890ED060ADFED190A20EE200A76
:10055000D0ED050A9FED171A00EE810A80ED060A1C
:100560000E48C08800EE100AB8EE400ADFED120A0D
:1005700020EE208A084890ED070ADFED0D0A20EEF4
:10058000200ADFED0C0A08EE200A80ED070ABDEC18
:10059000028B10BD88090020200900207809002066
:1005A0000000044100F07F4540000020000084422C
:1005B00057EC6F3F499D803DCDCC9C4070B50446C3
:1005C000206806F0FBFD0646206806F0FCFD98B3A7
:1005D00096BB2068806800F00D0001280AD12068D1
:1005E00081681A4A1140891C816000BF032021687C
:1005F000086009E0E06D40F01000E065206E40F01A
:1006000001002066012070BD03F0D6FA054614E013
:1006100003F0D2FA401B02280FD92068806800F04E
:10062000010050B1E06D40F01000E065206E40F038
:10063000010020660120E6E705E02068806800F000
:1006400001000028E4D10020DDE70000C0FFFF7FAB
:1006500038B5044600200090206806F0B4FD00285C
:1006600058D1206880682C49084048B1E06D40F0BE
:100670001000E065206E40F001002066012038BDCA
:10068000206806F07BFD2168B1F1A04F03D0234A1A
:100690002168914201D1224900E02249084606F032
:1006A00075FD00F4000080B11F4800681F49B0FBD1
:1006B000F1F0401C00EB40008000009002E0009848
:1006C000401E009000980028F9D103F075FA054605
:1006D0001AE0206806F077FD10B9206806F04EFD9C
:1006E00003F06AFA401B02280ED92068006800F067
:1006F000010048B9E06D40F01000E065206E40F068
:10070000010020660120BAE72068006800F00100BF
:100710000028DED00020B2E73F000080000100503A
:10072000000300500007005010000020400D03009F
:1007300024490978884205D023498969234A1160F0
:100740002049087090B120498969204A1268891AA5
:1007500040F6B83291421FD91B49497D41F0010250
:1007600019494A7500211A4A117015E0164989691C
:10077000164A1268891A40F6B83291420CD91249C9
:10078000497D01F0020210494A7500210E4A11709C
:1007900051705180918091710B49497D01290FD190
:1007A0000949097831B10849097D41F00101064A3A
:1007B000117505E00449097D01F00201024A117535
:1007C000704700004C0000209809002048000020DD
:1007D0004400002000BFFEE710B52DED028B002481
:1007E000C4480078FFF7A4FFC348007807F044FC32
:1007F00009F0F6FBC148007F401CC1B2BF48017739
:10080000007F642802DABDEC028B10BD0021BB48DA
:1008100001770120BA490870BA4800784870BA4890
:1008200090ED040AF2EE040A20EE200ABCEEC00AA3
:1008300010EE100A4880B44890ED020AF2EE040A65
:1008400020EE200ABCEEC00A10EE100A88800A20B2
:10085000C880E62008819FEDAD0AB0EE408AAA4824
:1008600090ED080AB0EE408A90ED090AB4EEC80A8D
:10087000F1EE10FA03DD90ED090AB0EE408AA248CD
:1008800090ED0A0AB4EEC80AF1EE10FA03DD90ED1D
:100890000A0AB0EE408A9C4890ED0B0AB4EEC80AF2
:1008A000F1EE10FA03DD90ED0B0AB0EE408ABCEEDB
:1008B000C80A10EE100A924988729548007900F033
:1008C0000100C87292480079C0F340000873904854
:1008D0000079C0F3800048738D480079C0F3C000F0
:1008E00088738B480079C0F30010C873884800797A
:1008F000C0F34010087486480079C0F38010487433
:1009000083480079C0F3C010887481488088C0F3A0
:100910000020C8747E488088C0F3402008757C4859
:100920008088C0F38020487579488088C0F3C02053
:10093000887577488088C0F30030C875744880880F
:10094000C0F34030087672488088C0F38030487623
:100950006F488088C0F3C03088766D484068C0F327
:100960000040C8760020087769484068C0F34040DE
:1009700048776248407D08B9012000E000206049C6
:10098000887763484068C0F3C040C87760484068D3
:10099000C0F3005081F82000002081F8210081F888
:1009A000220081F8230081F8240081F8250081F8D5
:1009B000260081F8270081F8280081F8290081F8B5
:1009C0002A00002406E05348015D4D482B300155B4
:1009D000601CC4B2032CF6DB002406E04E48015D27
:1009E00047482E300155601CC4B2032CF6DB0024AE
:1009F00006E04A48015D424831300155601CC4B2EE
:100A0000032CF6DB002406E04548015D3C48343009
:100A10000155601CC4B2082CF6DB002406E04148F6
:100A2000015D37483C300155601CC4B2082CF6DB30
:100A30000020334981F842003B480078401C3A4985
:100A40000870084600780F2801DD0020087036483D
:100A500000782B4981F84300084609F031FE002058
:100A60003249086088802748007888712848007AD1
:100A7000C8712F4800780872002048728872C872C6
:100A80002348007A08732248807A48732048407AC5
:100A900088730020C87308744874887488828875C5
:100AA00008834883087748778877C87781F82000DB
:100AB00081F8210081F8220081F8230081F82400C8
:100AC00081F8250081F8260081F82700084690F873
:100AD0002800401C81F82800084690F828000F28BC
:100AE00002DD002081F82800104809F0CFFF00BF88
:100AF00089E60000440000204500002098090020FD
:100B0000E40900202C0A0020200900200000000039
:100B1000E00600205BB0000858B000085EB0000896
:100B200061B0000869B0000846000020B809002044
:100B30005408002010B501F0E9FF10BD10B50B48B6
:100B400040780A49097888420FD008480078074958
:100B5000487000F0B7FD07F039FD00200449087027
:100B6000B3EE0E0A014880ED040A10BDE006002035
:100B70005408002010B52DED028B9FED280AB0EE31
:100B8000408A274840782649097888423FD025483E
:100B9000008A00EE100AB8EE400ADFED230A20EECC
:100BA000200AB0EE408A214890ED000AF3EE0D0ACB
:100BB000B4EEE00AF1EE10FA21D2B3EE0E0AB4EE72
:100BC000C08AF1EE10FA1ADB00F06CFD07F0FEFCB3
:100BD00017480088401C16490880084600880328EA
:100BE00018DB0F4800780E49487000201149487002
:100BF00088710220087000200D4908800AE000205A
:100C00000B49088000F05EFD07F0E0FC02E00020E8
:100C100007490880BDEC028B10BD000000000000F9
:100C2000E006002098090020CDCCCC3D2009002012
:100C30001E000020540800207047000018488068FB
:100C400018B105201649087029E015484078022897
:100C500007D113488078012803D103201049087078
:100C60001DE00F484078012813D10D4880780128F5
:100C70000FD10B48C078022803DA03200849087016
:100C80000DE00748C078022809D104200449087003
:100C900005E00348407810B9012001490870704709
:100CA0002C0A00200C48008A30B90B48C08918B9BA
:100CB00000200A4908710DE00848407918B9012060
:100CC0000649087106E005484079012802D1022052
:100CD0000249087170470000980900202C0A002082
:100CE0002548806818B10520234908703BE0224858
:100CF0004078022803D120488078012833D01E484C
:100D00004078022806D11C48807818B902201A4978
:100D1000087028E01848407801280AD116488078E1
:100D200018B11548C078022803DD02201249087066
:100D300019E011484078012807D10F48C0780228EF
:100D400003D104200C4908700DE00B48407850B9DD
:100D50000948008A642803DD05200749087002E07D
:100D600001200549087004480078032802D00020BB
:100D700001490871704700002C0A002010B5024696
:100D80000020002341B13AB100BF03E0CC5C6040D9
:100D90005C1CE3B29342F9DB10BDF0EE400AC0EDFB
:100DA000040A90ED030A90ED021AD0ED041A01EE48
:100DB000210A80ED030A90ED030A90ED011AD0EDAF
:100DC000041A01EE210A80ED070A90ED070A704728
:100DD0004A48C08900EE100AB8EE400ADFED480A22
:100DE00020EE200A474880ED070A90ED070AF1EE51
:100DF000040AB4EEE00AF1EE10FA03DDB1EE040AE3
:100E000080ED070A3F4890ED060AD0ED070A9FEDF6
:100E10003E1A70EEC10AB4EEE00AF1EE10FA08D202
:100E200090ED060ADFED380A30EE200A80ED060A62
:100E300004E0344890ED070A80ED060A314890ED51
:100E4000060A3248D0ED030A30EE600A304880EDE1
:100E5000040A90ED040AD0ED030A30EE600ADFEDDB
:100E60002D0A20EE200AD0ED040A9FED2B1A01EE88
:100E7000200A80ED070A90ED040A80ED030A90ED48
:100E8000070AD0ED080A30EE200A80ED070A90ED3F
:100E9000070ADFED220AB4EEE00AF1EE10FA03DDF4
:100EA0009FED1E0A80ED070A194890ED070ADFED55
:100EB0001C0AB4EEE00AF1EE10FA04D2002019493F
:100EC0000870487003E00120164908704870104807
:100ED00090ED070A80ED080A9FED130A114880ED96
:100EE000040A01200F49487000208870084890EDDE
:100EF000070A084680ED050A70470000980900209F
:100F0000CDCCCC3D5408002017B751392009002022
:100F1000C40800200DC78E3C8197993B8FC2F53DD8
:100F20000AD7233CFC06002000401C4710B5B3EE56
:100F30000E0A224880ED040A407820490978884248
:100F400038D01F4890ED000AF2EE040AB4EEE00A31
:100F5000F1EE10FA26D21948007A18BB1948008819
:100F6000401C1849088008460088032825DB1348E0
:100F700000781249487000F095FB07F027FB00202D
:100F800011494870B3EE0E0A0C4880ED040A242182
:100F90000E48FFF789F901200B4908700020094924
:100FA00008800AE000200749088000F08BFB07F06A
:100FB0000DFB02E000200349088010BDE006002080
:100FC000200900201C00002054080020A008002058
:100FD00010B52DED048B9FEDA80AB0EE409AA748FE
:100FE00090ED010AB0EE409A90ED000AF0EE408AD2
:100FF000A34890ED000ADFEDA30A20EE200ADFED02
:10100000A20A08EEA00A80ED000A9FEDA00AA048FF
:1010100080ED040A9F48008A00EE100AB8EE400AEC
:10102000DFED9D0A20EE200AB0EE408A9B488079D1
:1010300002286FDA00F046FB38EE680A984880ED27
:10104000040A90ED040ADFED970AB4EEE00AF1EE2F
:1010500010FA04DD9FED930A80ED040A0DE090483C
:1010600090ED040ADFED900AB4EEE00AF1EE10FA1A
:1010700003D29FED8D0A80ED040A894890ED040AA1
:10108000D0ED030A30EE600ADFED880A20EE200A78
:10109000D0ED040A9FED861A01EE200A80ED070AC2
:1010A00090ED040A80ED030A90ED070AD0ED080ADE
:1010B00030EE200A80ED070A90ED070ADFED7D0A89
:1010C000B4EEE00AF1EE10FA0FDD9FED7A0A80ED42
:1010D000070A79480088401C77490880084600883C
:1010E000642805DD6420088002E000207249088041
:1010F0000120674908704870694890ED070ADFEDE4
:101100006F0AB4EEE00AF1EE10FA04D20020087083
:1011100048700EE018E0624890ED070ADFED650ABE
:10112000B4EEE00AF1EE10FA03DB9FED620A80ED07
:10113000070A5B4890ED070A80ED080A90ED070A60
:10114000534880ED050A03E00020514908704870BB
:1011500052488079F0BB51484078012812D1584854
:101160000088401C5649088008460088B0F57A7F00
:1011700077DD0220494948700120887100205049DC
:1011800008806EE09FED440A38EE000A3C48D0ED3E
:10119000000AB4EEE00AF1EE10FA1FDD9FED3E0A00
:1011A00038EE400AD0ED000AB4EEE00AF1EE10FA93
:1011B00014D243480088401C4149088008460088F2
:1011C000B0F57A7F4DDD01203449487007F00CFA04
:1011D000002000E008E03A49088042E00020384959
:1011E00008802E4948703CE02C48807901280DD1B8
:1011F00034480079012834D1022028498871002020
:101200002349087048702E4908802AE023488079D5
:10121000022826D12A480088401C2949088008460F
:101220000088B0F5FA7F1CDD00201C4988709FED16
:10123000260AB4EEC09AF1EE10FA0DD29FED0E0A16
:10124000224880ED030A9FED0C0A80ED080A002079
:10125000C8700420087004E00520104908700020C0
:1012600088701848007918B900200949087048703A
:10127000BDEC048B10BD0000000000002009002020
:101280003C00002016FB7B3F499D803C00401C47F2
:10129000FC06002098090020CDCCCC3D540800204D
:1012A000A00800206666663F666666BF0AD7233DD3
:1012B0006F12833A8FC2F53D380000200AD7233CD5
:1012C000360000202C0A002000001C42C408002028
:1012D00010B52DED028B9FED690AB0EE408AB3EE9A
:1012E0000E0A674880ED050A664890ED000AB0EEE8
:1012F000408A654890ED000ADFED640A20EE200A7E
:10130000DFED630A08EE200A80ED000A5C4890EDEC
:10131000050A30EE480A5F4880ED040A90ED040AA1
:10132000D0ED030A30EE600ADFED5B0A20EE200A02
:10133000D0ED040A9FED591A01EE200A80ED070A4C
:1013400090ED040A80ED030A90ED070AD0ED080A3B
:1013500030EE200A80ED070A90ED070ADFED500A13
:10136000B4EEE00AF1EE10FA03DD9FED4D0A80EDD8
:10137000070A484890ED070ADFED4A0AB4EEE00A92
:10138000F1EE10FA03D200204749087002E0012074
:10139000454908703F4890ED070A80ED080A9FED27
:1013A000430A414880ED040A00F08CF901203E49CF
:1013B000487000208870374890ED070A084680ED95
:1013C000050A9FED3B0A2E4880ED080AB0EE000AA0
:1013D00080ED090A3748007A78BB294890ED050A64
:1013E000DFED350A30EE200A2748D0ED000AB4EED2
:1013F000E00AF1EE10FA21DD214890ED050ADFED5B
:101400002E0A30EE600A2048D0ED000AB4EEE00A61
:10141000F1EE10FA12D229480088401C27490880B2
:1014200008460088642825DD01201549487007F02A
:10143000DBF80020214908801CE003E000201F4960
:10144000088017E00E484078012810D11B4800881A
:10145000401C1A49088008460088B0F5C87F09DD9D
:1014600002200749487000201449088002E000204B
:1014700012490880BDEC028B10BD00000000000086
:1014800054080020200900203000002016FB7B3F7C
:10149000499D803CA0080020F4FD543DA69BC43A21
:1014A0008FC2F53D0AD7233CFC06002000401C47B4
:1014B00000000042E0060020CDCCCC3D2E000020F4
:1014C000704700000648806818B10520044908707C
:1014D00005E00348407810B10220014908707047C8
:1014E0002C0A002010B51548006C0468134890F8C9
:1014F000440000F01F01022088402040E8B10F485E
:101500000068006800F0200058B90C4800680068C6
:1015100020F00A000949096808600120074981F89C
:101520002500064890F8440000F01F010220884082
:101530000249096C486008F097FD10BD3001002099
:1015400010B51548006C0468134890F8440000F08A
:101550001F01022088402040E8B10F480068006861
:1015600000F0200058B90C480068006820F00A001C
:101570000949096808600120074981F825000648E3
:1015800090F8440000F01F01022088400249096CD5
:10159000486008F06FFD10BD9001002030B5114D7E
:1015A0000468AC4206D210490478083C1425B4FB08
:1015B000F5F208E00C4920310478083C1425B4FB0E
:1015C000F5F404F108020B46446CA40803EB840410
:1015D0008464054C8034C46402F01F050124AC40CF
:1015E000046530BD0804024000080240027902F0A0
:1015F0007F014A1E064B03EB82024265044A4032D9
:1016000082654A1E02F01F0301229A40C26570479C
:101610000009024030B5D0E913546C60446D14B138
:10162000D0E916546C6090F8444004F01F05012482
:10163000AC40056C6C60046863608468102C04D155
:101640000468A2600468E16003E00468A1600468C3
:10165000E26030BD024641EA0220704770B505469F
:101660000E461446A5F2892020B151280AD06E28D2
:101670000FD100E00EE0E0B2314608F063FF06490A
:10168000087007E0E0B2314608F092FF03490870A5
:1016900000E000BF00BF70BD4400002045000020F6
:1016A0007047000010B500224FF40051034802F0CB
:1016B0007DFA00200249487210BD00000008004871
:1016C000E006002010B501225103034802F06EFA33
:1016D00001200249487210BD00080048E0060020C1
:1016E00072B600BFFEE7000010B5024801F003FF2C
:1016F00010BD00008402002010B51D4A1D4C036877
:10170000A34201D102F554721B4C0368A34201D1DC
:1017100002F5D46202640368D3F8803023F4F8142D
:10172000838E44EA03430468C4F8803002F17003F6
:1017300043640368D3F8803023F0706490F8383045
:1017400044EA03630468C4F8803002F1B0038364A0
:10175000D833C364D833036518334365114602E0B8
:1017600000230B60091D02F554739942F8D310BD94
:1017700000A4004000680040006C00402DE9F041EA
:10178000054614461E46D1F804C0BCF1000F0AD12C
:10179000D1F810C0D1F808804CEA080CB1F80080EC
:1017A0004CEA88430BE0D1F810C04CF0804CD1F8E3
:1017B00008804CEA080CD1F800804CEA080391F844
:1017C0002080D1F81CC04CEA086CD1F818804CEA93
:1017D000080CD1F814804CEA080CB1F80C804CEAE3
:1017E000084706EBC608D5F854C00CEBC8021360D6
:1017F000121D1760121D002019E000F1030C14F8EF
:101800000CC04FEA0C6800F1020C14F80CC048EA56
:101810000C4800F1010C14F80CC048EA0C2C14F828
:1018200000804CEA080CC2F800C0121D001DDFF851
:101830001480D1F80CC018F80CC08445DDD8BDE880
:10184000F081000060AE0008704700000A48407850
:1018500030B90948806818B901200749087009E0C3
:1018600005484078012805D10348806810B9022056
:1018700001490870704700002C0A002070470000E2
:101880000848806818B105200649087009E0054835
:10189000407818B10348C078022802D002200149DC
:1018A000087070472C0A0020F8B504460D46002049
:1018B000009000BF94F85800012801D10220F8BD23
:1018C000012084F8580000BF2046FEF777FE064648
:1018D0008EBBE06D20F4885040F00200E065206887
:1018E00081681B4A114005F0804242F000421143DA
:1018F000816000BF13E00098401C009015490098DB
:1019000088420CD3E06D20F0020040F01000E0654A
:1019100000BF002084F8580000BF0120CFE72068F6
:101920008168C90F0029E6D1E06D20F0020040F087
:101930000100E06504E0FFE7E06D40F01000E065C5
:1019400000BF002084F8580000BF3046B7E7000011
:10195000C0FFFF3F02DE04002DE9F0439BB00446C8
:101960000E464FF00008306800B100BF00BF94F889
:101970005800012803D102201BB0BDE8F0830120EC
:1019800084F8580000BF0020179018902068B0F12C
:10199000A04F02D15848009008E05849206888427A
:1019A00002D15748009001E000200090009850B903
:1019B000E06D40F02000E06500BF002084F8580092
:1019C00000BF0120D8E7009805F011FC0746206809
:1019D00005F00DFC00287DD1002F7FD12068B0F1EB
:1019E000A04F03D044492068884201D1454800E017
:1019F000454805463068D8B394F83800716841EA24
:101A00004030A96821F460410843A8602068B0F123
:101A1000A04F03D038492068884201D1394800E0FE
:101A20003948384988420AD14FF0A04005F0D0FB30
:101A30008146314805F0CCFB49EA00000DE02F4813
:101A400005F0C6FB81462E4805F0C2FB49EA0009B5
:101A50002E4805F0BDFB49EA0000E0BBB1683068E4
:101A60000843A96840F61F7291430843A8603BE011
:101A7000FFE7A86820F46040A8602068B0F1A04F9C
:101A800003D01D492068884201D11E4800E01E484D
:101A90001C4988420AD14FF0A04005F099FB8146CD
:101AA000154805F095FB49EA00000DE0134805F0E4
:101AB0008FFB8146124805F08BFB49EA0009134869
:101AC00005F086FB49EA000028B9A86840F61F71B6
:101AD000884301E002E007E0A86005E0E06D40F027
:101AE0002000E0654FF0010800BF002084F8580096
:101AF00000BF404640E700000001005000040050D5
:101B00000005005000030050000700500006005080
:101B10002DE9F84F05460C464FF0000A00200090D2
:101B2000FE49E068884200D000E000BF00BF95F8A1
:101B30005800012802D10220BDE8F88F012085F865
:101B4000580000BF286805F04DFB00287DD12968AA
:101B5000D4E9002001F1300CC0F3012B0CEB8B0316
:101B6000D3F800C000F01F0E4FF01F0B0BFA0EFB56
:101B70002CEA0B0C00F01F0BC2F3846E0EFA0BFE66
:101B80004CEA0E0CC3F800C000BF286805F02AFB21
:101B90008146286805F00DFB8046B9F1000F64D13D
:101BA000B8F1000FFBD1A068B0F1004F0AD1216855
:101BB0000022286805F028FB4FF00041286805F056
:101BC00048FB08E0A2682168286805F01DFB002199
:101BD000286805F03EFB60692968C968C1F3C10146
:101BE000490000FA01F7206904283FD028682268DC
:101BF000216900F1600C0CEB8103D3F800C0DFF821
:101C000020B30CEA0B0C02F0F84B4BF0004B4BEA04
:101C1000070B4CEA0B0CC3F800C000BF2868A26990
:101C2000216900F1600C0CEB8103D3F800C02CF0AB
:101C3000807C4CEA020CC3F800C000BF2868227FF9
:101C40002169012A02D1520601E0F6E10022134681
:101C500000F1600C0CEB8102D2F800C02CF0007C8B
:101C60004CEA030CC2F800C000BFA7E000212868BE
:101C700005F096FAC0F3120030B90021286805F08B
:101C80008FFAC0F3846007E00021286805F088FA25
:101C900090FAA0F0B0FA80F02168C1F3120119B9EE
:101CA0002168C1F3846104E0216891FAA1F1B1FADD
:101CB00081F1884204D100221146286805F0BEFA5D
:101CC0000121286805F06CFAC0F3120030B9012137
:101CD000286805F065FAC0F3846007E001212868F0
:101CE00005F05EFA90FAA0F0B0FA80F02168C1F336
:101CF000120119B92168C1F3846104E0216891FAE5
:101D0000A1F1B1FA81F1884204D1002201212868B1
:101D100005F094FA0221286805F042FAC0F3120097
:101D200030B90221286805F03BFAC0F3846007E06F
:101D30000221286805F034FA90FAA0F0B0FA80F099
:101D40002168C1F3120119B92168C1F3846104E06B
:101D5000216891FAA1F1B1FA81F1884204D10022FF
:101D60000221286805F06AFA0321286805F018FAAC
:101D7000C0F3120030B90321286805F011FAC0F34E
:101D8000846007E00321286805F00AFA90FAA0F0C1
:101D9000B0FA80F02168C1F3120119B92168C1F3CA
:101DA000846104E0216891FAA1F1B1FA81F18842DD
:101DB00004D100220321286805F040FA286805F0C4
:101DC00002FA002870D12868E2682168D0F8B0C013
:101DD000C1F312032CEA030C02F0180B514B23FA47
:101DE0000BF30B404CEA030CC0F8B0C000BF4B49EA
:101DF000E068884258D12368C3F312031BB92368F3
:101E0000C3F3846304E0236893FAA3F3B3FA83F380
:101E10005B1C03F01F03092B3ED82368C3F3120396
:101E20001BB92368C3F3846304E0236893FAA3F324
:101E3000B3FA83F35B1C03F01F034FF0010C0CFAA1
:101E400003FC2368C3F312031BB92368C3F3846341
:101E500004E0236893FAA3F3B3FA83F35B1C03F063
:101E60001F034CEA836C2368C3F312031BB9236876
:101E7000C3F3846304E0236893FAA3F3B3FA83F310
:101E80005B1C03F01F0303EB43034FF0000B4BEA13
:101E900003534CEA03033FE02368C3F3120323B95F
:101EA0002368C3F3846305E042E0236893FAA3F355
:101EB000B3FA83F35B1C03F01F034FF0010C0CFA21
:101EC00003FC2368C3F312031BB92368C3F38463C1
:101ED00004E0236893FAA3F3B3FA83F35B1C03F0E3
:101EE0001F034CEA836C2368C3F312031BB92368F6
:101EF000C3F3846304E0236893FAA3F3B3FA83F390
:101F00005B1C03F01F030A3B03EB43034FF0007B12
:101F10004BEA03534CEA0303194605E000007F40F7
:101F200000F0FF03FFFF0700A268286805F06CF9C6
:101F3000484920680840002842D02968B1F1A04FE4
:101F400003D0454A2968914201D1444900E04449FF
:101F5000084605F01BF9064642492068884203D02E
:101F60004149206888422CD106F4000048BB28680B
:101F7000B0F1A04F03D03D492868884263D12A6858
:101F8000B2F1A04F03D0344B2A689A4201D1334AB0
:101F900000E0334A104646F4000105F049F93448A0
:101FA00000683449B0FBF1F0401C00EB40008000B9
:101FB000009002E00098401E009000980028F9D19F
:101FC00041E02D49206888421BD106F08070C0B9DD
:101FD00021492868884236D028492868884232D06A
:101FE0002A68B2F1A04F03D01B4B2A689A4201D154
:101FF0001A4A00E01A4A104646F0807105F018F9B6
:1020000021E01F49206888421DD106F48000D0B924
:1020100011492868884216D02A68B2F1A04F03D02F
:102020000B462A689A4201D10C4A00E00C4A10463D
:1020300046F4800105F0FCF805E0E86D40F0200072
:10204000E8654FF0010A00BF002085F8580000BF86
:10205000504671E500000880000100500003005068
:1020600000070050000021C31000C090000600507F
:1020700010000020400D0300000052C70005005072
:10208000000084CB2DE9F84304464FF000080020FF
:10209000009014B90120BDE8F883606920B194F87C
:1020A0002400012800D100BFE06D30B9204600F0C7
:1020B00045F90020206684F8580020688168C1F343
:1020C000407131B120688168914A1140816000BF40
:1020D00000BF206805F081F8B0B9206881688D4A9A
:1020E000114041F08051816000BF8B4800688B49EE
:1020F000B0FBF1F0401C4000009002E00098401E50
:10210000009000980028F9D1206805F066F848B9D9
:10211000E06D40F01000E065206E40F001002066A8
:102120004FF00108206805F05DF80646E06D00F00C
:10213000100000287ED1002EFCD1E06D20F48070CC
:1021400040F00200E065206805F03DF888BB20689B
:10215000B0F1A04F03D072492068884201D1714884
:1021600000E071486F4988420AD14FF0A04005F065
:102170002AF881466A4805F026F849EA00000DE091
:102180006A4805F020F88146694805F01CF849EADC
:102190000009684805F017F849EA000048B92268C4
:1021A000B2F1A04F03D05E4B22689A4202D15D4A41
:1021B00001E009E05C4A10466168826822F47C1202
:1021C0000A43826000BF00BF607FE16B41EA40309C
:1021D000E1680843A168084394F8241040EA0145E7
:1021E00094F82400012803D1208D401E45EA404583
:1021F000E06A28B1A08D00F47870216B0843054394
:102200002068C0684C49084028432168C86020689D
:10221000006920F04060616B084321680861206814
:1022200004F0C7FF0746EEBBE7BB207F002141EA71
:10223000803100E064E094F8380041EA400520680D
:10224000C06844F20201884328432168C8602069BD
:1022500080B12068006940F48030216808612068FE
:10226000D0F8C0006FF30D00216908432168C1F860
:10227000C0000DE02068006920F48030216808610A
:102280002068D0F8C0006FF30D002168C1F8C000CD
:1022900094F84000012813D1606C40F00101A06C5B
:1022A000084300E012E0E16C0843216D0843216817
:1022B000096940F2FC72914308432168086105E016
:1022C0002068006920F00100216808616069012828
:1022D00009D12068006B20F00F00216A491E0843D5
:1022E0002168086305E02068006B20F00F0021687A
:1022F0000863E06D20F0020040F00100E06505E0B9
:10230000E06D40F01000E0654FF001084046C2E685
:10231000C0FFFF5FC0FFFF7F10000020400D0300E3
:10232000000100500003005000070050000400505E
:1023300000050050000600500740F0FF10B59CB0AB
:102340000446142117A8FDF7AFFF542102A8FDF79A
:10235000ABFF2068B0F1A04F7DD14FF40040029058
:102360008003139002A802F007FC08B1FFF7B8F948
:1023700085480068401C84490860084600680128B8
:102380000DD100BF8148C06C40F400507F49C86443
:102390000846C06C00F40050019000BF00BF00BFB1
:1023A0007A48C06C40F004007849C8640846C06CA4
:1023B00000F00400019000BF00BF00BF0846C06CE1
:1023C00040F00100C8640846C06C00F001000190B4
:1023D00000BF00BF00BF0846C06C40F00200C864E8
:1023E0000846C06C00F00200019000BF00BF0C2046
:1023F0001790032018900020199017A9644801F045
:10240000DFFA05201790032018900020199017A9D3
:102410004FF0904001F0D4FA02201790032018905A
:102420000020199017A95B4801F0CAFA5A485B4985
:10243000086005204860002158488160C160802103
:10244000016149004161890081612021C1614FF42E
:102450004051016200E009E000F0A2FD08B1FFF781
:102460003FF900BF4D48606584628AE04C492068AE
:102470008842FAD1C00102908003139002A802F0B2
:102480007BFB08B1FFF72CF93F480068401C3E4930
:1024900008600846006801280DD100BF3B48C06CA9
:1024A00040F400503949C8640846C06C00F400503C
:1024B000019000BF00BF00BF3448C06C40F0040072
:1024C0003249C8640846C06C00F00400019000BFA7
:1024D00000BF00BF0846C06C40F00100C864084659
:1024E000C06C00F00100019000BF00BF00BF0846B3
:1024F000C06C40F00200C8640846C06C00F00200E6
:10250000019000BF00BF31201790032018900020D9
:10251000199017A91E4801F053FAF02017900320D4
:1025200018900020199017A94FF0904001F048FA38
:102530004FF400601790032018900020199017A9FD
:10254000144801F03DFA144814301649086024205C
:102550004860002113488160C16080210161490009
:102560004161890081612021C1610021016200F087
:1025700017FD08B1FFF7B4F800BF0A486065846230
:1025800000BF1CB010BD0000000000200010024081
:102590000008004800040048080002403001002004
:1025A00000010050900100202DE9F04104460F4643
:1025B00090462168B1F1A04F03D0404A2168914272
:1025C00001D13F4900E03F49084604F0E4FD0646DA
:1025D000206804F007FE00286CD100BF94F8580072
:1025E000012802D10220BDE8F081012084F85800C2
:1025F00000BF35492068884201D1012000E0002059
:1026000020B91EB1052E01D0092E4DD12046FEF76E
:102610001FF80546002D42D1E06D40F60161884368
:1026200040F48070E06525492068884202D14FF06F
:10263000A04006E025492068884201D1244800E0F6
:1026400020682168884200D01EB9E06D20F4801017
:10265000E065E06D00F4805020B1206E20F00600AF
:10266000206601E0002020661C202168086000BF71
:10267000002084F8580000BF2068C06840F00100C6
:102680002168C860226802F1400143463A46606D05
:1026900000F0F0FC0546206804F0AEFD0BE000BF42
:1026A000002084F8580006E0012500BF002084F8CF
:1026B000580000E00225284695E700000001005080
:1026C00000030050000700500006005000050050B5
:1026D000000400502DE9F843044600200090804695
:1026E00014B94FF0010881E12068006800F0004053
:1026F000B0F1004F02D14FF0010877E1607F28B9B7
:10270000002020772062204600F07EF920680068D3
:1027100000F40007D4E90110084361690843E16847
:102720000843216940EA010620680068B149084071
:102730003043216808602068006800F4000088B118
:1027400087B9AD480068AD49B0FBF1F0401C00EB23
:1027500080008000009002E00098401E00900098E9
:102760000028F9D1A6492068884202D14FF4001010
:1027700025E0A349091D2068884202D14FF480005A
:102780001DE09F4908312068884201D1800616E08B
:102790009B490C312068884202D14FF080400EE006
:1027A000974910312068884201D1C00607E094495A
:1027B00014312068884201D1012000E00220054642
:1027C000207E00F0030000287ED0207E00F0100064
:1027D000D0B18B4914312068884203D0091D20688C
:1027E000884207D100BF87480068284385490860B0
:1027F00000BF24E000BF8348203800682843814997
:102800002039086000BF1AE07D49143120688842F1
:1028100003D0091D2068884207D100BF79480068AD
:10282000A8437849086000BF09E000BF7548203818
:102830000068A84373492039086000BF00BF207EAC
:1028400000F02000E0B16E4914312068884203D0C6
:10285000091D2068884209D100BF6A48001D006830
:1028600028436849091D086000BF26E000BF65488D
:102870001C380068284363491C39086000BF1CE00D
:102880005F4914312068884203D0091D20688842BE
:1028900009D100BF5B48001D0068A8435949091DC4
:1028A000086000BF09E000BF56481C380068A84314
:1028B00054491C39086000BF00BF514914312068D9
:1028C000884205D0091D00E06CE02068884203D1F1
:1028D000284604F0D1FC02E0284604F0C1FC207E2A
:1028E00000F00200E0B1464914312068884203D06C
:1028F000091D2068884209D100BF4248001F0068B6
:1029000028434049091F086000BF19E000BF3D4847
:102910002438006828433B492439086000BF0FE091
:10292000374914312068884203D0091D2068884245
:1029300003D1284604F0AEFC02E0284604F0A2FCD5
:10294000207E00F00100E0B12D491431206888425A
:1029500003D0091D2068884209D100BF29480838E2
:102960000068284327490839086000BF3AE000BFE3
:10297000244828380068284322492839086000BFC5
:1029800030E01F4914312068884203D0091D2068B7
:10299000884203D1284604F08DFC23E0284604F049
:1029A00081FC1FE0164914312068884203D0091DBC
:1029B0002068884203D1284604F06CFC02E02846D7
:1029C00004F060FC0E4914312068884203D0091DD0
:1029D0002068884203D1284604F06CFC02E02846B7
:1029E00004F060FC607F08B9012060774046BDE8D4
:1029F000F88300000F7E00FF10000020400D030050
:102A0000000201402804014010B586B0044614219C
:102A100001A8FDF749FC3A492068884221D100BF4E
:102A20003848C06C40F001003649C8640846C06CA4
:102A300000F00100009000BF00BF022001900320C1
:102A400002900020039001A94FF0904000F0B8FFE1
:102A500000221146402001F0A7FF402001F090FF26
:102A60004BE02749091D2068884221D100BF254835
:102A7000C06C40F001002349C8640846C06C00F0F7
:102A80000100009000BF00BF0820019003200290C9
:102A90000020039001A94FF0904000F091FF002228
:102AA0001146402001F080FF402001F069FF24E042
:102AB00013490831206888421FD100BF1148C06CFB
:102AC00040F004000F49C8640846C06C00F00400E0
:102AD000009000BF00BF0220019003200290002060
:102AE000039001A9084800F06BFF00221146402026
:102AF00001F05AFF402001F043FF06B010BD000076
:102B000000020140001002400008004810B54FF4D8
:102B1000800004F0D7FB18B14FF4800004F0A6FB4E
:102B20004FF4001004F0CEFB18B14FF4001004F085
:102B30009DFB4FF0005004F0C5FB18B14FF0005062
:102B400004F094FB10BD00002DE9F84F04460D463B
:102B500016460020009004B115B90120BDE8F88F99
:102B6000E869012800D100BFA868042800D103E06B
:102B70006869022800D100BF00BF6079012801D137
:102B80000220EBE70120607100BF02202071A868DD
:102B9000042859D101F010F88246E6B911E001F09D
:102BA0000BF8A0EB0A0001280BD92068406B00F459
:102BB000004030B1206940F00800206103202071FE
:102BC000CCE72068406B00F400400028E7D1686A39
:102BD000216808641BE011E000F0EEFFA0EB0A00A2
:102BE00001280BD92068406B00F0004030B120690B
:102BF00040F00800206103202071AFE72068406B9F
:102C000000F000400028E7D1686A21684864206825
:102C1000806C06F0100240F2FF319140884306F0CC
:102C20001002A96A91400843216888642068C06C3A
:102C300006F01002FF219140884306F01002E96A75
:102C4000914008432168C864E86901280FD12068D1
:102C5000876B06F010011F2088408743D5F820803D
:102C600006F0100008FA00F0074320688763206828
:102C7000C76B06F01001072088408743A869012828
:102C800002D14FF000090CE0A869022802D14FF0F0
:102C9000010906E0686910B94FF0010901E04FF041
:102CA00000096969A868084340EA090806F01001AC
:102CB0004FF48070884087432879012801D10002B1
:102CC00000E0002040EA080806F010014FF4007010
:102CD000884087436879012801D1400200E0002044
:102CE00040EA080827F44047286802280FD102F07C
:102CF00061FA83462C498B4502D947F4004708E026
:102D00002A48834502D947F4804702E001E0286859
:102D1000074306F0100108FA01F007432068C76373
:102D20002068006806F010024FF48041914088430B
:102D3000216808602068076806F0100140F6FE7000
:102D400088408743D5F80C8006F0100108FA01F09E
:102D50000743206807602068006806F01002C02161
:102D60009140884321680860287BC0F38308287C51
:102D7000C0F3830048EA00282068006E06F01002C5
:102D800040F60F719140884306F0100108FA01F1F6
:102D90000843216808660120207100BF002060718F
:102DA00000BF0098DAE600000068890900B4C40496
:102DB00010B504460CB9012010BD207920B90020BF
:102DC0006071204600F008F8022020710020206188
:102DD000012020710020EFE708B5124A01689142F6
:102DE0000DD100BF1049C96C41F480310E4AD16445
:102DF0001146C96C01F48031009100BF11E00B4A0B
:102E0000016891420DD100BF0749C96C41F480218E
:102E1000054AD1641146C96C01F48021009100BFBC
:102E200000BF08BD00080050001002400010005014
:102E300078B50446002000900CB9012078BD2068C8
:102E4000C06B01F010064FF48075B540284000B902
:102E500000BF2068009029B902F10800009D2844B5
:102E6000009004E002F11400009D284400900098B6
:102E700003600020E2E7000018B502460AB901200D
:102E800018BD00BF5079012801D10220F8E70120C8
:102E9000507100BF022010711068006801F010042A
:102EA0000123A3401843136818601A4800681A4B9E
:102EB000B0FBF3F0401C009002E00098401E009030
:102EC00000980028F9D161B91068006800F03E0050
:102ED000022816D11068406840F00100136858605D
:102EE0000FE01068006800F4781301F0100402206D
:102EF000A040834205D11068406840F0020013688A
:102F000058600120107100BF0020507100BF00BF49
:102F1000B6E7000010000020400D0300014600222B
:102F200009B90120704791F82500022803D0042038
:102F3000C863012227E00868006820F001000B68E0
:102F400018600868006820F00E000B681860886C34
:102F5000006820F480708B6C186091F8440000F0D9
:102F60001F03012098400B6C5860D1E91330586062
:102F7000486D40B1486D006820F480704B6D18605A
:102F8000D1E916305860012081F8250000BF0020EB
:102F900081F8240000BF1046C4E70146C86B7047A3
:102FA00070B504460CB9012070BD304920688842D4
:102FB0000BD22F492068401A1421B0FBF1F0800099
:102FC00060642B48083820640AE028492068401AC9
:102FD0001421B0FBF1F080006064244808382064BC
:102FE000022084F825002068056847F6F0708543C4
:102FF000D4E9020108432169084361690843A169D2
:103000000843E1690843216A0843054320680560D5
:103010002046FEF7C3FAA068B0F5804F01D100202A
:103020006060207900F07F00A16C0860D4E9131083
:103030004860606860B16068042809D82046FEF7DF
:10304000D5FA0020616D0860D4E91610486003E0ED
:1030500000206065A065E0650020E063012084F841
:103060002500002084F8240000BF9DE708040240EA
:10307000080002402DE9F04104460D4616461F4661
:103080004FF0000800BF94F82400012802D102206C
:10309000BDE8F081012084F8240000BF94F82500E9
:1030A00001283FD1022084F825000020E063206839
:1030B000006820F00100216808603B46324629463E
:1030C0002046FEF7A7FA206B30B12068006840F078
:1030D0000E00216808600BE02068006820F0040002
:1030E000216808602068006840F00A0021680860D4
:1030F000A06C006800F4803028B1A06C006840F437
:103100008070A16C0860606D28B1606D006840F44B
:103110008070616D08602068006840F001002168DF
:10312000086006E000BF002084F8240000BF4FF0D4
:1031300002084046ACE770B50346144693F85C506D
:1031400001F4C07000B100BF012D01D0022D7DD16E
:103150001868826D01F0070010B102F0010018B389
:1031600001F0380010B102F00200E8B101F4E070A3
:1031700010B102F00400B8B101F4F05010B102F047
:10318000080088B101F4604010B102F0100058B19D
:1031900001F4403010B102F0200028B101F47C00AD
:1031A00040B102F0400028B91868C06D40F001003D
:1031B0001E68F06501F0070010B102F0010018BBB5
:1031C00001F0380010B102F00200E8B901F4E0703B
:1031D00010B102F00400B8B901F4F05010B102F0DF
:1031E000080088B901F4604010B102F0100058B92D
:1031F00001F4403010B102F0200028B901F47C0045
:1032000040B102F0400028B11868C06D40F00200E3
:103210001E68F06501F0800030B11868D0F8DC005D
:1032200020431E68C6F8DC0001F4807030B11868D5
:10323000D0F8E00020431E68C6F8E0001868406D32
:1032400008431E687065002070BDFFE7186E40F0EF
:10325000020018660120F7E72DE9F04104460E460A
:103260001746706800B900E000BF94F85C000228BF
:1032700021D12068D0F8C40000F4001030B1206ED5
:1032800040F4007020660120BDE8F0812068D0F88D
:10329000C400C0F301452B463A4631462046FEF7AE
:1032A0006DFA0120A8402168C1F8CC000120A84097
:1032B000A0650020E8E7206E40F0080020660120AD
:1032C000E2E7F0B5024692F85C60012E01D0022ED2
:1032D00023D1086880B9087A80070F7B40EAC7606D
:1032E0000F8A40EA07404F6940EA0704176C4868B4
:1032F00007EB80031C600EE00F7B086940EA47740F
:103300000F7A486940EA8775576C486807EBC00335
:103310001C601B1D1D600020F0BD106E40F00200FF
:1033200010660120F8E770B50446049D94F85C002F
:10333000012810D1080140EA820040EA43002843F6
:103340002668D6F8806026F03F0630432668C6F827
:103350008000002070BD206E40F004002066012037
:10336000F8E730B5034693F85C40012C01D0022CFD
:103370000ED1012A05D11868806D88431D68A865A3
:1033800004E01868806D08431D68A865002030BD02
:10339000186E40F0020018660120F8E77047704789
:1033A0002DE9F04304460E469C4694F85C80B8F143
:1033B000020F7DD1402E26D12068D0F8900000F079
:1033C0000F0030B9206E40F4807020660120BDE807
:1033D000F0832068D0F89000C0F301232068D0F873
:1033E0009000C0F3006040B12068D0F88000C0F3C6
:1033F000402010B1581C00F0030303EBC309A06C7C
:1034000000EBC90124E02068D0F8980000F00F001C
:1034100028B9206E40F4807020660120D7E720682C
:10342000D0F89800C0F301232068D0F89800C0F3CA
:10343000006040B12068D0F88000C0F3002010B1D7
:10344000581C00F0030303EBC309E06C00EBC90157
:10345000086800F080405060506820B90868C0F3E8
:103460008A40106003E0086820F06040106008683F
:1034700000F000509060086800F000401061091DE5
:10348000088880B2D0610868C0F30340D060086843
:1034900000F480105061086800F400109061086822
:1034A000C0F3066010620868C00F5062091D00E09A
:1034B00018E00F46002503E0785D0CF805006D1C50
:1034C000DFF82C90D06819F80000A842F4D8402EFC
:1034D00003D12068C0F8943002E02068C0F89C3026
:1034E000002074E7206E40F00800206601206EE79F
:1034F00060AE000870472DE9FC5F04462068006D4F
:1035000000F4E0572068406D07402068006D00F02F
:1035100007082068406D00EA08082068006D00F088
:1035200038092068406D00EA09092068006D00F440
:10353000710A2068406D00EA0A0A2068006D00F4F4
:10354000602B2068406D00EA0B0B2068456D2068F9
:10355000066DC6F3801040B1C5F3801028B140203D
:10356000216808652046FFF7C5FFC6F30020A0B11B
:10357000C5F3002088B12068D0F8D80000902068FA
:10358000D0F8E0000099084000904FF48070216866
:1035900008652046009900F00EFA2FB120680765F3
:1035A0003946204600F009FAB8F1000F06D020682D
:1035B000C0F850804146204600F0CEF9B9F1000F26
:1035C00006D02068C0F850904946204600F0D9F94E
:1035D000C6F3402048B1C5F3402030B14FF400702D
:1035E00021680865204600F0E9F9C6F3C01098B1DB
:1035F000C5F3C01080B12068D0F8D40001902068D5
:10360000D0F8DC000199084001908020216808650D
:103610002046019900F0D0F9C6F3403048B1C5F317
:10362000403030B14FF4005021680865204600F06A
:10363000C1F9C6F3C03048B1C5F3C03030B14FF462
:10364000004021680865204600F0B3F9C6F38030D9
:1036500050B1C5F3803038B14FF48040216808651F
:10366000206E40F080002066BBF1000F06D020687D
:10367000C0F850B059462046FFF791FEBAF1000F4E
:1036800006D02068C0F850A0206E40EA0A002066EC
:10369000206E10B12046FFF781FEBDE8FC9F0000C0
:1036A00070B504460CB9012070BD8149206888427C
:1036B00000D100BFA068B0F5407F00D100BF94F8F2
:1036C0005C0028B9002084F85D00204600F0F4F882
:1036D0002068806920F010002168886100F06CFA91
:1036E00005460DE000F068FA401B0A2808D9206E54
:1036F00040F001002066032084F85C000120D3E73D
:103700002068806900F008000828EBD020688069F4
:1037100040F001002168886100F04EFA05460DE096
:1037200000F04AFA401B0A2808D9206E40F0010038
:103730002066032084F85C000120B5E720688069DA
:1037400000F001000028EBD02068806940F0020002
:103750002168886156492068884202D155496068CD
:103760000860207C012806D12068806920F0400094
:103770002168886105E02068806940F04000216888
:103780008861607C012806D12068806940F480400F
:103790002168886105E02068806920F48040216804
:1037A0008861A07C012806D12068806920F48050BF
:1037B0002168886105E02068806940F480502168B4
:1037C00088612068806920F44070A16808432168FE
:1037D00088612068806920F0A400216888612068E1
:1037E000006920F0100021680861E068012806D116
:1037F0002068806940F004002168886120E0E0686A
:10380000F0B1E068022815D02068806940F080009F
:10381000216888612068006940F010002168086113
:10382000E06803280CD12068806940F020002168FE
:10383000886105E02068806940F020002168886187
:10384000207E401E4106E069401E41EA0020216AB8
:10385000491E0843A18A491E40EA01402168C86107
:10386000A068B0F5407F0FD1A06A401EE16A491EF2
:1038700040EA0121206B401E41EA0011A08C401E4D
:1038800041EA00402168C8602068D0F8C000E16BC0
:1038900008432168C1F8C0002046FDF72DFF002035
:1038A000A0652066012084F85C000020FCE6000092
:1038B000006400400065004010B59CB0044614212F
:1038C00017A8FCF7F1FC542102A8FCF7EDFC2049F5
:1038D000206888423AD1801402904003109002A8D8
:1038E00001F04AF908B1FDF7FBFE00BF1948806DF1
:1038F00040F00070174988650846806D00F0007040
:10390000019000BF00BF00BF0846C06C40F001003E
:10391000C8640846C06C00F00100019000BF00BF01
:103920004FF4C050179002201890002019901A9060
:1039300009201B9017A9C00600F042F800220521BB
:10394000152001F031F8152001F01AF81CB010BD57
:10395000006400400010024030B59BB004460D46A4
:10396000402101A8FCF7A0FC01AB11AA4021204690
:10397000FFF716FD01A9149A1198FDF76FFE1BB011
:1039800030BD7047014691F85C0001280BD1022040
:1039900081F85C000868806920F001000A68906185
:1039A000002008667047086E40F004000866012099
:1039B000F8E77047704770477047704770470000DE
:1039C00078B503460022D2E0012696400D6805EA4C
:1039D0000604002C7BD00D7905F00305012D04D0E1
:1039E0000D7905F00305022D13D1986856000325C3
:1039F000B540A8435600CD68B54028439860586844
:103A000001259540A8430D79C5F30015954028433D
:103A100058600D7905F00305032D07D10D7905F0E8
:103A20000305032D0CD18D68012D09D0D8685600EF
:103A30000325B540A84356008D68B5402843D8609B
:103A40000D7905F00305022D13D1D60803F12005E9
:103A500055F826005507EE0E0F25B540A84356072A
:103A6000F60E0D69B5402843D60803F1200545F848
:103A70002600186856000325B540A8430D7905F0C7
:103A800003055600B540284318604D6805F44035DD
:103A9000002D6BD000BF394D2D6E45F00105374E1E
:103AA000356635462D6E05F00105009500BF00BF57
:103AB0004FEAB635960855F8260095072E0F0F25C4
:103AC000B540A843B3F1904F02D100251AE04DE074
:103AD0002B4DAB4201D1012514E02A4DAB4201D15F
:103AE00002250FE0284DAB4201D103250AE0274D06
:103AF000AB4201D1042505E0254DAB4201D105259E
:103B000000E006259607360FB5402843214D96085C
:103B100045F82600204D2868A0434D6805F480151F
:103B200005B120431C4D28602D1D2868A0434D6819
:103B300005F4001505B12043174D2D1D2860164DC5
:103B40002D1F2868A0434D6805F4003505B12043BA
:103B5000114D2D1F28602D1F2868A0434D6805F4C6
:103B6000803505B120430C4D083D2860521C0D687E
:103B7000D540002D7FF428AF78BD00000010024032
:103B80000004004800080048000C004800100048ED
:103B9000001400480800014008040140024613696F
:103BA0000B400BB1012000E0002070470AB1816199
:103BB00000E0816270470000014800687047000023
:103BC00004000020024600BF92F8DC00012801D169
:103BD00002207047012082F8DC0000BF022082F83A
:103BE000DD00481C80B91068D0F8CC0320F0020337
:103BF0001068C0F8CC331068D0F8CC0340F0010353
:103C00001068C0F8CC3318E01068D0F8CC0340F04E
:103C100002031068C0F8CC331068D0F8CC0320F051
:103C20000C0008431368C3F8CC031068D0F8CC0329
:103C300040F001031068C0F8CC33012082F8DD00A9
:103C40000020C6E770B504460D46164694F8DD0020
:103C5000022800D170BD00BF94F8DC00012801D11A
:103C60000220F7E7012084F8DC0000BF022084F87E
:103C7000DD0032462946204602F0C2FC012084F8CD
:103C8000DD0000BF002084F8DC0000BF00BFE1E7DA
:103C9000024692F8DD00022800D1704700BF92F87A
:103CA000DC00012801D10220F7E7012082F8DC00C6
:103CB00000BF022082F8DD001068D0F8B833084653
:103CC00063F31D001368C3F8B803012082F8DD0018
:103CD00000BF002082F8DC0000BF00BFDDE730B588
:103CE000034693F8DD00022800D130BD00BF93F8F1
:103CF000DC00012801D10220F7E7012083F8DC0075
:103D000000BF022083F8DD00082938D006DC012935
:103D100009D0022915D004295DD121E010293DD018
:103D2000202958D148E01868D0F8080420F0030092
:103D30000125946805EB440420431C68C4F808047A
:103D400052E01868D0F8080420F440704FF48075F1
:103D5000946845EA442420431C68C4F8080443E0FE
:103D60001868D0F8080420F4403014894FF48035E6
:103D700045EA444420431C68C4F8080434E0186849
:103D8000D0F8080420F04070147A4FF0807545EAAE
:103D9000446420431C68C4F8080425E01868D0F87F
:103DA0000C0420F003000125946805EB4404204333
:103DB0001C68C4F80C0417E01868D0F80C0420F450
:103DC00040704FF48075946845EA442420431C6891
:103DD000C4F80C0408E0072083F8DD0000BF0020D1
:103DE00083F8DC0000BF00BF00BF93F8DD000728A8
:103DF00001D1012079E7012083F8DD0000BF002018
:103E000083F8DC0000BF00BF6FE7F0B504460F4643
:103E1000134694F8DD00022800D1F0BD00BF94F8ED
:103E2000DC00012801D10220F7E7012084F8DC0042
:103E300000BF022084F8DD002068D0F8D02320687D
:103E4000D0F8D413187800F001051878C0F34006B4
:103E5000082F57D006DC012F09D0022F1CD0042FC9
:103E60007DD134E0102F68D0202FF9D17CE022F0F2
:103E7000FE02187900F00200024342EA850221F4B2
:103E8000803141EA0641187A00F078000243187B3D
:103E900000F0800002438BE022F47E424FF4007C6D
:103EA00058680CEA0020024342EA852221F40031DE
:103EB00041EA46414FF4F04C98680CEA0020024376
:103EC0004FF4004CD8680CEA0020024370E022F462
:103ED0007E0298884FF4003C0CEA0040024342EA1C
:103EE000854221F4802141EA864118894FF4F00C83
:103EF0000CEA0040024398894FF4000C0CEA0040A1
:103F0000024355E022F07E4218794FF0007C0CEA23
:103F10000060024342EA856221F4002141EAC64181
:103F2000187A4FF0F04C0CEA00600243187B4FF017
:103F3000004C0CEA006002433AE021F0FE011879DF
:103F400000F00200014341EA850121F4801141EAB9
:103F50000651187A00F078000143187B00E01EE05B
:103F600000F08000014323E021F47E414FF4007C07
:103F700058680CEA0020014341EA852121F4001130
:103F800041EA46514FF4F04C98680CEA0020014396
:103F90004FF4004CD8680CEA0020014308E00720E9
:103FA00084F8DD0000BF002084F8DC0000BF00BF03
:103FB00000BF94F8DD00072801D101202DE702F0B1
:103FC0007F3C2068C0F8D0C348F2800021EA00009E
:103FD000D4F800C0CCF8D4032068D0F8D00302F0A5
:103FE000803C40EA0C00D4F800C0CCF8D003206834
:103FF000D0F8D40348F2800C01EA0C0C40EA0C0023
:10400000D4F800C0CCF8D403012084F8DD0000BF50
:10401000002084F8DC0000BF00BFFEE610B50346B8
:1040200093F8DD00022800D110BD00BF93F8DC003A
:10403000012801D10220F7E7012083F8DC0000BF4E
:10404000022083F8DD00082939D006DC012909D0D7
:10405000022916D004295FD122E010293ED0202960
:104060005AD14AE010688000546840EAC4101C68C5
:10407000D4F8084424F0BC0420431C68C4F80804A5
:1040800053E010688002546840EAC4301C68D4F8D9
:10409000084424F43C4420431C68C4F8080444E069
:1040A00010888004948840EAC4501C68D4F80844FE
:1040B00024F43C0420431C68C4F8080435E010785C
:1040C0008006147940EAC4701C68D4F8084424F0CF
:1040D0003C4420431C68C4F8080426E010688000B3
:1040E000546840EAC4101C68D4F80C4424F0BC04A2
:1040F00020431C68C4F80C0417E010688002546860
:1041000040EAC4301C68D4F80C4424F43C442043F6
:104110001C68C4F80C0408E0072083F8DD0000BF29
:10412000002083F8DC0000BF00BF00BF93F8DD0073
:10413000072801D1012077E7012083F8DD0000BFC7
:10414000002083F8DC0000BF00BF6DE710B501F070
:1041500001033BB10368D3F8D03362F30003046872
:10416000C4F8D03301F002033BB10368D3F8D03375
:1041700062F308230468C4F8D03301F004033BB1B0
:104180000368D3F8D03362F310430468C4F8D03323
:1041900001F008033BB10368D3F8D03362F318632E
:1041A0000468C4F8D03301F010033BB10368D3F8BE
:1041B000D43362F300030468C4F8D43301F020035D
:1041C0003BB10368D3F8D43362F308230468C4F81E
:1041D000D43310BD024692F8DD00022800D17047AA
:1041E00000BF92F8DC00012801D10220F7E701208E
:1041F00082F8DC0000BF022082F8DD001068D0F8F1
:10420000D40320F0407001F0407318431368C3F8E2
:10421000D403012082F8DD0000BF002082F8DC001A
:1042200000BF00BFDBE70000F8B504460CB9012071
:10423000F8BD0220E03404F8030C00202060606028
:10424000A060E06020616061A061E03C207A00F045
:10425000010008B33549206888420DD100BF3448B9
:10426000006E40F08060324908660846006E00F03B
:104270008060009000BF00BF2068066826F44046BA
:10428000208A00F44040064326F44056A08A00F4F9
:104290004050064320680660204600F04BF8207A24
:1042A00000F0020048B12068066826F44076A08934
:1042B00000F44070064320680660012084F8DD00A9
:1042C00000BF002084F8DC0000BF002529E00021A9
:1042D000C5EBC50204F1180040F82210C5EBC50279
:1042E00000EB82004160C5EBC50204F1180000EB51
:1042F00082008160C5EBC50204F1180000EB82006A
:10430000C160C5EBC50204F1180000EB8200016139
:10431000C5EBC50204F1180000EB82008161681C46
:10432000C5B2062DD3D9002082E700000068014005
:104330000010024008B5094A016891420DD100BF42
:104340000749096E41F08061054A11661146096E00
:1043500001F08061009100BF00BF08BD006801400E
:104360000010024010B586B00446142101A8FBF7E6
:104370009BFF1149206888421CD100BF0F48C06CC8
:1043800040F002000D49C8640846C06C00F002000D
:10439000009000BF00BF4FF47040019002200290D7
:1043A00000200390032004900D20059001A90448EB
:1043B000FFF706FB06B010BD006801400010024088
:1043C0000004004870B504460D46FFF7F5FB0646AD
:1043D0000CE0681C50B1FFF7EFFB801BA84200D82F
:1043E00025B9072084F8DD00032070BD2068D0F8CF
:1043F0008803C0F300400028EBD0012084F8DD00E2
:1044000000BF002084F8DC0000BF00BFEDE770B5FE
:1044100004460D46164694F8DD00022800D170BD12
:10442000022084F8DD00062D04D13146204602F03A
:104430009CFA04E032462946204602F07CFB01202B
:1044400084F8DD000020EAE730B5044694F8DD008A
:10445000022800D130BD00BF94F8DC00012801D152
:104460000220F7E7012084F8DC0000BF022084F876
:10447000DD00062928D1012A06D0022A08D0042A04
:104480000AD0082A10D10BE018682568E86114E00A
:1044900018682568686210E018682568A8620CE052
:1044A00018682568E86208E0072084F8DD0000BF8E
:1044B000002084F8DC0000BF00BF00BF94F8DD00DE
:1044C00007287DD10120C5E7012A06D0022A0BD09A
:1044D000042A4CD0082A74D150E01D68206880302E
:1044E00000EBC110C5619AE01D682068803000EBC8
:1044F000C1104562586868B32068803000EBC11075
:10450000006820F440552068803000EBC110056041
:104510002068803000EBC11000685D682843256882
:10452000803505EBC11528605868B0F5005F06D1ED
:104530009D682068803000EBC110C56116E05868A6
:10454000B0F5405F12D19D682068803000EBC1104B
:1045500085620BE02068803000EBC110006820F419
:1045600040502568803505EBC115286057E01D686F
:104570002068803000EBC110856250E01D68206823
:10458000803000EBC110C562586888B32068803065
:1045900000EBC110006820F440452068803000EB3B
:1045A000C11005602068803000EBC11000685D68B4
:1045B00040EA85052068803000EBC110056001E00D
:1045C00034E023E05868B0F5005F06D19D682068AC
:1045D000803000EBC110C56117E05868B0F5405F4E
:1045E00013D19D682068803000EBC11085620CE01B
:1045F000FFE72068803000EBC110006820F44040E5
:104600002568803505EBC115286008E0072084F88F
:10461000DD0000BF002084F8DC0000BF00BF00BF49
:1046200094F8DD00072801D1012013E7012084F868
:10463000DD0000BF002084F8DC0000BF00BF09E7F8
:10464000024600BF92F8DC00012801D10220704729
:10465000012082F8DC0000BF022082F8DD00106833
:104660000068084313681860012082F8DD0000BF6D
:10467000002082F8DC0000BF00BFE8E72DE9F04130
:1046800004460D4616461F4694F8DD00022801D167
:10469000BDE8F08100BF94F8DC00012801D10220C0
:1046A000F6E7012084F8DC0000BF022084F8DD007A
:1046B0003B4632462946204602F0BAF9012084F8EA
:1046C000DD0000BF002084F8DC0000BF00BFDFE792
:1046D000024600BF92F8DC00012801D10220704799
:1046E000012082F8DC0000BF022082F8DD001068A3
:1046F000D0F8940308431368C3F89403012082F8A8
:10470000DD0000BF002082F8DC0000BF00BFE6E74C
:1047100070B504460D46164694F8DD00022800D117
:1047200070BD00BF94F8DC00012801D10220F7E73A
:10473000012084F8DC0000BF022084F8DD00062D93
:1047400004D13146204602F024F904E032462946DD
:10475000204602F011FAC5EBC50204F1180000EB87
:10476000820031688160C5EBC50204F1180000EBDE
:1047700082007168C160C5EBC50204F1180000EB4E
:104780008200B1680161C5EBC50204F1180000EBBD
:104790008200F1684161C5EBC50204F1180000EB2D
:1047A0008200316981612946204602F094F8062D85
:1047B00010D0F06A70B92068803000EBC510006836
:1047C00020F40070F16D40EA41212068803000EB58
:1047D000C5100160012084F8DD0000BF002084F8CE
:1047E000DC0000BF00BF9BE770B504460D461646CF
:1047F00094F8DD00022800D170BD00BF94F8DC0001
:10480000012801D10220F7E7012084F8DC0000BF75
:10481000022084F8DD0032462946204602F0D6FA0E
:10482000012084F8DD0000BF002084F8DC0000BF18
:1048300000BFE1E710B521484068401C1F494860AF
:1048400008460069401C086108460069B0F5FA6F27
:1048500002D34FF4FA60086118484068052807D36E
:1048600000201649486005F0DDFE04F055FA1DE011
:1048700012484068012819D010484068022815D015
:104880000E48406803280BD10D480088401C0C4995
:10489000088008460088142808DB0020088005E00E
:1048A00006484068042801D102F070FB0348806884
:1048B000401C02498860FBF78FFF10BDCC0600202A
:1048C0001400002010B50024032000F0ABF80F20E6
:1048D00000F008F808B1012401E000F02FF82046AC
:1048E00010BD000070B50446002511480068D8B11D
:1048F0000F4800684FF47A71B1FBF0F00D49096878
:10490000B1FBF0F6304601F033F858B9102C07D25D
:1049100000222146501E00F047F80748046004E0DA
:10492000012502E0012500E00125284670BD0000B8
:104930000C000020100000200800002008B500BF77
:104940000E48006E40F001000C4908660846006EF3
:1049500000F00100009000BF00BF00BF0846806D5E
:1049600040F0805088650846806D00F080500090CF
:1049700000BF00BF00F0F6F808BD000000100240C4
:104980000146084600280DDB00BF00BF00F01F03F2
:1049900001229A4043099B0003F1E023C3F8002160
:1049A00000BF00BF00BF70472DE9F05F80460D4695
:1049B000164605F097FA074639462A46334601F06F
:1049C0000700C0F1070ABAF1040F02D94FF0040A38
:1049D00001E0C0F1070AD14600F1040ABAF1070F5D
:1049E00002D24FF0000A01E0A0F1030AD4464FF0D2
:1049F000010A0AFA09FAAAF1010A0AEA020A0AFAFB
:104A00000CFA4FF0010B0BFA0CFBABF1010B0BEAAC
:104A1000030B4AEA0B042146404605F06BFABDE859
:104A2000F09F000000BF00F00702064B19684FF628
:104A3000FF031940044B0B4343EA0221014B196069
:104A400000BF70470CED00E00000FA0502468ABB8B
:104A50004148006800F4C060B0F5806F2BD13E483B
:104A60008030006820F480703B4BC3F8800018460B
:104A7000006820F4C06040F4007018603748006897
:104A800032235843364BB0FBF3F0411C00E0491E83
:104A90003148406900F48060B0F5806F01D1002991
:104AA000F5D12D48406900F48060B0F5806F51D198
:104AB0000320704708E028488030006820F48070A8
:104AC000254BC3F8800045E0B2F5007F3AD122487B
:104AD000006800F4C060B0F5806F2AD11E488030B5
:104AE000006840F480701C4BC3F8800018460068D2
:104AF00020F4C06040F40070186018480068322349
:104B00005843174BB0FBF3F0411C00E0491E12481C
:104B1000406900F48060B0F5806F01D10029F5D1C3
:104B20000D48406900F48060B0F5806F12D1032019
:104B3000BFE709488030006840F48070064BC3F836
:104B4000800007E00448006820F4C06040F4806002
:104B5000014B18600020ACE70070004010000020FE
:104B600040420F000348806840F48040014988605B
:104B700070470000007000402DE9F843044600270C
:104B8000B846206800F40020B0F5002F73D1B94674
:104B9000FD48806D00F0805078B900BFFA48806D04
:104BA00040F08050F84988650846806D00F08050DC
:104BB000009000BF00BF4FF00109F448006840F4C6
:104BC0008070F2490860FEF7F7FF064606E0FEF740
:104BD000F3FF801B022801D9032705E0EB4800689A
:104BE00000F480700028F2D000BF002F46D1E648C4
:104BF0009030006800F44075CDB1206DA84216D009
:104C0000E1489030006820F44075DF48D0F890000B
:104C100040F48030DC49C1F890000846D0F890009C
:104C200020F48030C1F890000846C0F8905005F09C
:104C30000100A0B1FEF7C0FF064608E0FEF7BCFF8A
:104C4000801B41F28831884201D9032706E0CE4813
:104C50009030006800F002000028EFD000BF5FB97C
:104C6000C9489030006820F44070216D0843C6495F
:104C7000C1F8900003E00CE0B84600E0B846B9F196
:104C8000010F05D1C048806D20F08050BE49886575
:104C900000BF207800F0010048B1BB4888300068B0
:104CA00020F0030061680843B749C1F88800207804
:104CB00000F00200022809D1B3488830006820F0D3
:104CC0000C00A1680843B049C1F88800207800F0C2
:104CD0000400042809D1AC488830006820F0300076
:104CE000E1680843A849C1F88800207800F008006E
:104CF000082809D1A4488830006820F0C000216944
:104D00000843A149C1F88800207800F0100010285D
:104D100009D19D488830006820F4407061690843DB
:104D20009949C1F88800207800F02000202809D196
:104D300095488830006820F44060A1690843924992
:104D4000C1F88800207800F04000402809D18E4842
:104D50008830006820F44050E16908438A49C1F86E
:104D60008800207800F08000802809D186488830AB
:104D7000006820F44040216A08438349C1F8880054
:104D8000208800F48070B0F5807F09D17E4888309B
:104D9000006820F44030616A08437B49C1F888000C
:104DA000206800F40030B0F5003F09D176489C300F
:104DB000006820F00300A16A08437349C1F89C0011
:104DC000208800F40070B0F5007F09D16E4888306B
:104DD000006820F44020E16A08436B49C1F888006C
:104DE000208800F48060B0F5806F13D16648883069
:104DF000006820F44010216B084363498831086043
:104E0000206BB0F5801F05D15F48C06840F480106A
:104E10005D49C860208800F40060B0F5006F13D1D0
:104E200059488830006820F44000616B08435649B7
:104E300088310860606BB0F5800F05D15248C068BA
:104E400040F480105049C860208800F48050B0F5CC
:104E5000805F13D14C488830006820F04070A16B0F
:104E60000843494988310860A06BB0F1807F05D1C3
:104E70004548C06840F480104349C860208800F469
:104E80000050B0F5005F13D13F488830006820F033
:104E90004060E16B08433C4988310860E06BB0F149
:104EA000006F05D13848C06840F480103649C860AA
:104EB000208800F48040B0F5804F13D1324888300C
:104EC000006820F04060216C08432F498831086059
:104ED000206CB0F1006F05D12B48C06840F4801001
:104EE0002949C860208800F40040B0F5004F13D174
:104EF00025488830006820F04050616C0843224902
:104F000088310860606CB0F1805F05D11E48C068D0
:104F100040F480301C49C860206800F48030B0F54F
:104F2000803F13D118488830006820F04040A16CC1
:104F30000843154988310860A06CB0F1804F05D155
:104F40001148C06840F480300F49C860206800F400
:104F50008020B0F5802F13D10B489C30006820F4DE
:104F60004010E16C084308499C310860E06CB0F5E2
:104F7000001F05D10448C06840F480100249C86091
:104F80004046BDE8F8830000001002400070004079
:104F90002DE9F04104460D464FF0000814B90120F8
:104FA000BDE8F0817D48006800F00F00A8420ED2F5
:104FB0007A48006820F00F002843784908600846C6
:104FC000006800F00F00A84201D00120E8E7207837
:104FD00000F00100002864D06068032823D17048E5
:104FE000006800F0007008B90120D9E703F0BAFAB0
:104FF00006466C48864237D96948806800F0F00060
:1050000030B1207800F0020002282DD1A06858BBF2
:105010006348806820F0F00040F0800060498860BC
:105020004FF0800820E06068022806D15C480068E4
:1050300000F4003040B90120B2E75948006800F49C
:10504000806008B90120ABE700F0DEF8064655485D
:10505000864209D95248806820F0F00040F0800074
:105060004F4988604FF080084D48806820F0030069
:10507000616808434A498860FEF79EFD074608E0DC
:10508000FEF79AFDC01B41F28831884201D9032006
:1050900086E74348806800F00C006168B0EB810F40
:1050A000EED1207800F00200022820D1207800F014
:1050B0000400042805D13A48806840F4E06038498B
:1050C0008860207800F00800082807D134488068FC
:1050D00020F4605040F4E0603149886030488068D6
:1050E00020F0F000A16808432D49886008E0B8F17D
:1050F000800F05D12A48806820F0F0002849886098
:105100002648006800F00F00A84219D9234800681B
:1051100020F00F00284321490860FEF74DFD0746A7
:1051200008E0FEF749FDC01B41F28831884201D9F1
:10513000032035E71948006800F00F00A842F0D1BD
:10514000207800F00400042807D11548806820F476
:10515000E060E168084312498860207800F00800A8
:10516000082808D10E48806820F46050216940EA80
:10517000C1000B49886000F047F809498968C1F30C
:105180000311094A515C01F01F01C840074908603A
:1051900007480068FFF7A6FB02E700000020024076
:1051A0000010024000B4C40498AE000810000020B3
:1051B000080000200148006870470000100000202F
:1051C00000B5FFF7F7FF05498968C1F30221044ADA
:1051D000515C01F01F01C84000BD000000100240FA
:1051E000A8AE000800B5FFF7E5FF05498968C1F3DF
:1051F000C221044A515C01F01F01C84000BD0000FB
:1052000000100240A8AE000870B5224DAD6805F050
:105210000C05042D01D120483AE01E4DAD6805F083
:105220000C05082D01D11D4832E01A4DAD6805F07E
:105230000C050C2D2BD1174DED6805F00304154D11
:10524000ED68C5F303156A1C022C0CD0032C09D1A0
:10525000124DB5FBF2F50F4EF668C6F3062605FBB8
:1052600006F10AE000BF0C4DB5FBF2F5094EF668F9
:10527000C6F3062605FB06F100BF00BF054DED682D
:10528000C5F341656D1C6B00B1FBF3F000E000203D
:1052900070BD0000001002400024F40000127A00EB
:1052A0002DE9F843044614B90120BDE8F8832078BD
:1052B00000F00100002865D0FC48806800F00C0771
:1052C000FA48C06800F003060C2F01D1032E01D06C
:1052D000082F0AD1F548006800F40030002851D0AA
:1052E000606800284ED10120DFE700BF6068B0F59C
:1052F000803F06D1ED48006840F48030EB490860FB
:105300001AE06068B0F5A02F0BD1E848006840F4BF
:105310008020E64908600846006840F48030086054
:105320000AE0E248006820F48030E049086008465E
:10533000006820F48020086000BF606888B1FEF734
:105340003BFC054606E0FEF737FC401BC82801D9A8
:105350000320AAE7D548006800F400300028F2D006
:1053600010E0FEF729FC054606E0FEF725FC401B91
:10537000C82801D9032098E7CC48006800F4003021
:105380000028F2D1207800F00200022860D1C7483E
:10539000806800F00C07C548C06800F003060C2FB9
:1053A00001D1022E01D0042F18D1C048006800F4AA
:1053B000806018B1E06808B9012076E7BB48406812
:1053C00020F0FE40217C40EA0160B8494860B848BE
:1053D0000068FFF787FA18B3012066E7E06800B3BA
:1053E000B248006840F48070B0490860FEF7E4FB02
:1053F000054606E0FEF7E0FB401B022801D903202A
:1054000053E7AA48006800F480600028F2D0A7485B
:10541000406820F0FE40217C40EA0160A3494860DA
:1054200016E0A248006820F48070A0490860FEF7EA
:10543000C3FB054606E0FEF7BFFB401B022801D96F
:10544000032032E79948006800F480600028F2D118
:10545000207800F00800082836D16069D0B1934860
:105460009430006840F001009049C1F89400FEF7C4
:10547000A3FB054606E0FEF79FFB401B022801D96F
:10548000032012E789489430006800F002000028E9
:10549000F1D019E085489430006820F0010083497C
:1054A000C1F89400FEF788FB054606E0FEF784FB92
:1054B000401B022801D90320F7E67C48943000689D
:1054C00000F002000028F1D1207800F00400042848
:1054D00072D14FF000087548806D012121EA1070EB
:1054E00078B100BF7148806D40F080506F49886589
:1054F0000846806D00F08050009000BF00BF4FF064
:1055000001086C48006800F48070B0B96948006810
:1055100040F4807067490860FEF74EFB054606E0E0
:10552000FEF74AFB401B022801D90320BDE6614873
:10553000006800F480700028F2D000BFA068012845
:1055400008D15A489030006840F001005749C1F82E
:10555000900021E0A06805280FD1544890300068E1
:1055600040F004005149C1F890000846D0F890007E
:1055700040F00100C1F890000EE04C489030006807
:1055800020F001004949C1F890000846D0F8900089
:1055900020F00400C1F8900000BFA068A8B1FEF799
:1055A0000BFB054609E0FEF707FB401B41F2883183
:1055B000884202D9032078E625E03C489030006814
:1055C00000F002000028EED013E0FEF7F5FA0546E1
:1055D00008E0FEF7F1FA401B41F28831884201D918
:1055E000032062E631489030006800F00200002895
:1055F000EFD1B8F1010F05D12C48806D20F080501B
:105600002A49886500BF207800F02000202836D184
:10561000A069D0B125489830006840F001002349C6
:10562000C1F89800FEF7C8FA054606E0FEF7C4FA8E
:10563000401B022801D9032037E61C489830006837
:1056400000F002000028F1D019E0184898300068F6
:1056500020F001001549C1F89800FEF7ADFA0546A3
:1056600006E0FEF7A9FA401B022801D903201CE638
:105670000E489830006800F002000028F1D1E0697F
:10568000002860D00948806800F00C000C287AD00F
:10569000E069022858D10548006820F0807003496D
:1056A0000860FEF789FA05460DE000000010024090
:1056B0000800002000700040FEF77EFA401B022820
:1056C00001D90320F1E54A48006800F00070002885
:1056D000F2D1D4E90810401E41EA0011A06A41EA63
:1056E0000021208E0122C2EB500041EA40513420BB
:1056F000005DC2EB500041EA40612C20005D41EAB0
:10570000C0603B49C9683B4A114008433849C860FA
:105710000846006840F0807008600846C06840F0A5
:105720008070C860FEF748FA054606E0FEF744FAC6
:10573000401B022801D90320B7E52D48006800F07E
:1057400000700028F2D051E02948006820F08070F5
:1057500027490860FEF730FA054606E0FEF72CFA06
:10576000401B022801D903209FE52148006800F072
:1057700000700028F2D11E48C0681F4908401C492B
:10578000C86033E0FFE7E069012800D18DE51848E3
:10579000C66806F00301206A814225D106F0F001B7
:1057A000606A401EB1EB001F1ED106F4FE41A06AE4
:1057B000B1EB002F18D106F078412C20005DB1EB41
:1057C000C06F11D106F4C001208E0122C2EB50003F
:1057D000B1EB405F08D106F0C0613420005DC2EB40
:1057E0005000B1EB406F01D001205EE500205CE588
:1057F000001002400C809F01FCFFEEFE70B50446D5
:105800000CB9012070BD606A38B96068B0F5827F5C
:1058100000D105E00021E16102E000212161616128
:105820000021A16294F85D0028B9002084F85C0092
:10583000204600F061F8022084F85D0020680068CE
:1058400020F0400021680860E068B0F5E06F01D901
:10585000002501E04FF48055E068B0F5706F05D089
:10586000E068B0F5E06F01D00021A162A08800F4EB
:105870008270218901F404410843217C01F0020176
:105880000843217D01F001010843218B01F40071DF
:105890000843217F01F0380108432021095D01F010
:1058A00080010843218D01F40051084321680860FC
:1058B0000421A06901EA104094F8241001F01001BD
:1058C000084394F8341001F008010843A18901F459
:1058D0007061084305F480510843216848602068DE
:1058E000C06920F400602168C861002020660120A2
:1058F00084F85D00002085E710B586B004461421C9
:1059000001A8FAF7D1FC17492068884227D100BFC7
:105910001548006E40F48050134908660846006E32
:1059200000F48050009000BF00BF00BF0846C06C6C
:1059300040F00200C8640846C06C00F0020000900D
:1059400000BF00BF38200190022002900020039089
:1059500004900520059001A90448FEF731F806B02F
:1059600010BD00000030014000100240000400485B
:1059700070B504462546681EB0F1807F01D3012032
:105980000FE0681E4FF0E02148610F214FF0FF301B
:1059900004F0B0FA00204FF0E02188610720086190
:1059A000002070BD10B50346002200BF93F83C00F4
:1059B000012801D1022010BD012083F83C0000BF66
:1059C00022F0FF00CC6840EA040222F440708C68A8
:1059D00040EA040222F480604C6840EA040222F4A7
:1059E00000600C6840EA040222F480500C6940EA2E
:1059F000040222F400504C6940EA040222F4804080
:105A00000C6B40EA040222F470200C8B40EA044242
:105A100022F08050CC6940EA0402144C1868A0427D
:105A200007D0134C1868A04203D0124C1868A0424B
:105A300013D122F470000C8D40EA045222F08070E1
:105A40000C6A40EA040222F000704C6A40EA040248
:105A500022F00050CC6A40EA04021868426400BF99
:105A6000002083F83C0000BF00BFA4E7002C0140E9
:105A7000003401400050014030B502460B4600BFE3
:105A800092F83C00012801D1022030BD012082F8AB
:105A90003C0000BF022082F83D0010684168106899
:105AA0008468234D1068A84207D0224D1068A84290
:105AB00003D0214D1068A84203D121F47001586829
:105AC00001431E4801401868014310684160184DA9
:105AD0001068A8421BD01068B0F1804F17D0184D45
