:020000040802F0
:10200000C8160020F121020825C70208EDA7020822
:1020100069C60208512902088DFB02080000000071
:102020000000000000000000000000007DE0020849
:102030006D43020800000000B1CE02089DEC0208CA
:102040000B2202080B2202080B2202080B220208B4
:102050000B2202080B2202080B2202080B220208A4
:102060000B2202080B2202080B22020899410208E7
:10207000F541020851420208614202080B2202089F
:102080000B2202080B2202080B2202080B22020874
:102090000B220208254402080B2202080B22020828
:1020A0000B2202080B2202080B2202080B22020854
:1020B0000B2202080B2202080B2202080B22020844
:1020C0000B2202080B2202080B2202080B22020834
:1020D0000B2202080B2202080B2202087DFA0208DA
:1020E0000B2202080B2202080B2202080B22020814
:1020F0000B2202080B2202080B2202080B22020804
:102100000B2202080B2202080B2202080B220208F3
:102110000B2202080B2202080B2202080B220208E3
:102120000B2202080B2202080B2202080B220208D3
:102130000B2202080B2202080B2202080B220208C3
:102140004D2E02080B2202080B2202080B22020865
:102150000B2202080B2202080B2202080B220208A3
:102160000B220208259C02080B2202080B220208FF
:102170000B2202080B2202080B2202080B22020883
:102180000B2202080B2202080B2202080B22020873
:102190000B220208000000000B2202080B2202089A
:1021A0000B2202080B2202080B2202080B22020853
:1021B0000B2202080B2202080B2202080B22020843
:1021C0000B2202080B2202080B2202080B22020833
:1021D0000B2202080B220208DFF810D000F08EF864
:1021E0000048004781FF0208AFF30080C8160020B6
:1021F0000648804706480047FEE7FEE7FEE7FEE7A1
:10220000FEE7FEE7FEE7FEE7FEE7FEE711ED020868
:10221000D92102082DE9F05F0546002092469B4631
:1022200088460646814640241BE0284641464746EC
:10223000224600F053F853465A46C01A914110D333
:1022400011461846224600F03AF82D1A67EB0108AD
:102250004F4622460120002100F031F817EB00091B
:102260004E41201EA4F10104DFDC484631462A46D7
:102270004346BDE8F09F40EA01039B0703D009E015
:1022800008C9121F08C0042AFAD203E011F8013B62
:1022900000F8013B521EF9D27047D2B201E000F8BB
:1022A000012B491EFBD270470022F6E710B51346FA
:1022B0000A4604461946FFF7F0FF204610BD202AC3
:1022C00004DB203A00FA02F1002070479140C2F18D
:1022D000200320FA03F3194390407047202A04DBBF
:1022E000203A21FA02F00021704721FA02F3D0408F
:1022F000C2F120029140084319467047064C074D31
:1023000006E0E06840F0010394E8070098471034C5
:10231000AC42F6D3FFF764FF74210308942103084D
:102320002A48008800EE900AF8EE600AB0EE600AD3
:10233000DFED270A60EE200A9FED261AC0EE811A13
:102340002548C0ED001A2148408800EE900AF8EEBA
:10235000600AB0EE600ADFED1E0A60EE200A9FED13
:102360001D1AC0EE811A1C48C0ED021A1748808859
:1023700000EE900AF8EE600AB0EE600ADFED170A90
:1023800060EE200A9FED131AC0EE811A1248C0EDCC
:10239000051AD0ED060A9FED121A60EE810A90ED43
:1023A000051ADFED101A41EE210AC0ED060AD0ED44
:1023B000030A9FED0B1A60EE810A90ED021ADFED21
:1023C000091A41EE210AC0ED030A7047400A0020B5
:1023D00099998A4200F07F45DC0900200000844280
:1023E00077BE7F3F6F12833A10B52DED028B89487F
:1023F000048820460EF080FE00EE100AB8EE400A77
:10240000854880ED0B0A83484488204600F0D2F9C5
:1024100000EE100AB8EE400A7F4880ED0C0A7D48B5
:10242000848820460EF068FE00EE100AB8EE400ADE
:10243000794880ED0D0A7948048920460EF05CFE4B
:1024400000EE100AB8EE400A734880ED0E0A90EDD7
:10245000130ADFED730A20EE200AD0ED0B0A9FED80
:10246000711A00EE810A80ED130A90ED140ADFED77
:102470006C0A20EE200AD0ED0C0A9FED6A1A00EEDD
:10248000810A80ED140A90ED150ADFED650A20EE51
:10249000200AD0ED0D0A9FED631A00EE810A80ED4F
:1024A000150A90ED160ADFED5E0A20EE200AD0ED47
:1024B0000E0A9FED5C1A00EE810A80ED160A55485F
:1024C000C08800EE100AB8EE400ADFED570A20EE91
:1024D000200ADFED560A80EE201A9FED520A21EE07
:1024E000000A4D48D0ED0F0A9FED4D1A00EE810A0B
:1024F00080ED0F0A4748008900EE100AB8EE400A46
:10250000DFED490A60EE200A9FED481A80EE810A4D
:10251000DFED440A20EE200A3F48D0ED100A9FED7F
:10252000401A00EE810A80ED100A3A48408900EE18
:10253000100AB8EE400ADFED3C0A60EE200A9FED7B
:102540003B1A80EE810ADFED370A20EE200A32487E
:10255000D0ED110A9FED321A00EE810A80ED110ACA
:102560002C48808900EE100AB8EE400ADFED2E0AF2
:1025700020EE200A9FED2D1AC0EE010A9FED290AD8
:1025800020EE800A2448D0ED120A9FED251A00EEB5
:10259000810A80ED120A1F48C08900EE100AB8EEC9
:1025A000400ADFED230A20EE200ADFED200A80EE4C
:1025B000201A194880ED081A90ED090ADFED1D0A6E
:1025C00020EE200AD0ED080A9FED1B1A00EE810ACA
:1025D00080ED090A1148C08800EE100AB8EE400AE2
:1025E000DFED160A20EE200ADFED100A80EE201A39
:1025F000B0EE418A084890ED0A0ADFED0E0A20EE9F
:10260000200ADFED0D0A08EE200A80ED0A0ABDEC73
:10261000028B10BD500A0020DC090020400A002077
:10262000A4707D3F0AD7233C66661E4100F07F45BB
:102630000000844257EC6F3F499D803D295C8141F9
:1026400070B50446206809F05DF80646206809F078
:102650005EF898B396BB2068806800F00D000128F2
:102660000AD1206881681A4A1140891C816000BF24
:1026700003202168086009E0E06D40F01000E0658B
:10268000206E40F001002066012070BD04F086FC41
:10269000054614E004F082FC401B02280FD9206894
:1026A000806800F0010050B1E06D40F01000E0657E
:1026B000206E40F0010020660120E6E705E020687A
:1026C000806800F001000028E4D10020DDE7000070
:1026D000C0FFFF7F38B5044600200090206809F055
:1026E00016F8002858D1206880682C49084048B165
:1026F000E06D40F01000E065206E40F001002066C3
:10270000012038BD206808F0DDFF2168B1F1A04F3D
:1027100003D0234A2168914201D1224900E0224995
:10272000084608F0D7FF00F4000080B11F48006899
:102730001F49B0FBF1F0401C00EB4000800000900E
:1027400002E00098401E009000980028F9D104F0A3
:1027500025FC05461AE0206808F0D9FF10B920686A
:1027600008F0B0FF04F01AFC401B02280ED92068C4
:10277000006800F0010048B9E06D40F01000E0652D
:10278000206E40F0010020660120BAE72068006852
:1027900000F001000028DED00020B2E73F000080FA
:1027A00000010050000300500007005010000020FE
:1027B000400D0300F0B502460023A52400210025AA
:1027C0002548B0F84A01904201DBA52541E02248A6
:1027D0000088904201DC00253BE022E018194110FE
:1027E0001D4830F81100904200D11CE01A4830F822
:1027F0001100904206DD184E481C36F81000904239
:1028000000DA10E0144830F81100904202DD481C54
:1028100083B206E0104830F81100904201DA481EF9
:1028200084B2A342DADD00BF0B4830F81100801AF1
:1028300083B2094830F811600746481C37F8100089
:10284000301AC0F34F04A34202DB481C85B200E0FB
:102850000D46E8B2F0BD0000B013030830B5002407
:102860000025124890ED0A0AB0EE401A1048808800
:10287000C0F3C02008B1012400E00024B0EE410AFA
:10288000032120460AF0A8FB054645B108484068E8
:1028900020F4006000F500600549486005E0044848
:1028A000406820F400600249486030BDDC09002027
:1028B0001407002022490978884205D021498969F6
:1028C000214A11601E490870C8B11E49097831B10A
:1028D0001C49097D41F001011A4A117505E01949A9
:1028E000097D01F00201174A11751649497D41F031
:1028F000010214494A750021144A11701BE0114964
:102900008969114A1268891A40F6B832914212D97F
:102910000C49097D01F002010A4A11751146497DF1
:1029200001F0020207494A750021064A11705170F0
:102930005180918091710021044A1170704700000C
:1029400040000020240800203C0000203800002027
:1029500000BFFEE710B52DED028B0024FE48007885
:10296000FFF7A8FFFD4800780AF052FAFC48407DC6
:1029700028B1FC48406820F40020FA4948600DF076
:1029800085F9F748007F401CC1B2F5480177007F08
:10299000642802DABDEC028B10BD0021F0480177FB
:1029A0000AF0A8F800B1F5E70120EF490870EF48F8
:1029B00000784870EE4890ED060AF2EE040A20EE28
:1029C000200ABCEEC00A10EE100A4880E84890EDDC
:1029D000030AF2EE040A20EE200ABCEEC00A10EE52
:1029E000100A8880E34890ED0E0AF2EE040A20EE09
:1029F000200ABCEEC00A10EE100AC880DD4890ED37
:102A00000C0ABCEEC00A10EE100A08819FEDDA0A2B
:102A1000B0EE408AD64890ED0B0AB0EE408A90EDB9
:102A20000C0AB4EEC80AF1EE10FA03DD90ED0C0AC0
:102A3000B0EE408ACE4890ED0D0AB4EEC80AF1EE31
:102A400010FA03DD90ED0D0AB0EE408AC84890ED13
:102A50000E0AB4EEC80AF1EE10FA03DD90ED0E0A8C
:102A6000B0EE408AC34890ED140AB4EEC80AF1EE05
:102A700010FA03DD90ED140AB0EE408ABD4890EDE7
:102A8000150AB4EEC80AF1EE10FA03DD90ED150A4E
:102A9000B0EE408AB2EE040A38EE000ABCEEC00A7C
:102AA00010EE100AB0498872AE48007900F00100BB
:102AB000C872AC480079C0F340000873A948007997
:102AC000C0F380004873A7480079C0F3C000887342
:102AD000A4480079C0F30010C873A2480079C0F37D
:102AE000401008749F480079C0F3801048749D48D6
:102AF0000079C0F3C01088749A488088C0F3002021
:102B0000C87498488088C0F340200875954880882C
:102B1000C0F38020487593488088C0F3C020887532
:102B200090488088C0F30030C8758E488088C0F314
:102B3000403008768B488088C0F3803048768948DA
:102B40008088C0F3C030887686484068C0F3004073
:102B5000C87684484068C0F34040087781484068A0
:102B6000C0F3804048777F484068C0F3C040887712
:102B70007C484068C0F30050C8777A484068C0F38A
:102B8000405081F8200077484068C0F3805081F8B9
:102B9000210074484068C0F3C05081F82200002032
:102BA00081F8230081F8240081F8250081F82600AF
:102BB00081F8270081F8280081F829006F4890F8F3
:102BC000240081F82A0007F07DFE6D480078401C43
:102BD0006B490870084600780F2801DD0020087056
:102BE00067480078604981F8430008460DF014FFFB
:102BF00000206449086088805C48007888715D48DE
:102C0000007AC8716048007808725A48407A487261
:102C10005848C07B88720020C8725248007A0873F6
:102C20005448C07B48734F48807A88730020C8732B
:102C3000504890ED110AF2EE040A20EE200ABCEE94
:102C4000C00A10EE100A08744A4890ED090ABCEE5A
:102C5000C00A10EE100A487400208874454890EDB0
:102C6000080ABCEEC00A10EE100A8882404890EDB7
:102C70000A0AF2EE040A20EE200ABCEEC00A10EEA8
:102C8000100A88753A4890ED000AF2EE040A20EE28
:102C9000200ABCEEC00A10EE100A08833B4890EDF3
:102CA000040ADFED3B0A20EE200ABCEEC00A10EE5B
:102CB000100A48832B4890ED080ABCEEC00A10EEBB
:102CC000100A08772A4890ED0F0ADFED310A20EE4E
:102CD000200ABCEEC00A10EE100A4877244890ED96
:102CE000100ADFED2B0A20EE200ABCEEC00A10EE1F
:102CF000100A88771E4890ED110ADFED250A20EEB4
:102D0000200ABCEEC00A10EE100AC877184890EDF1
:102D1000120ADFED1F0A20EE200ABCEEC00A10EEF8
:102D2000100A81F82000134890ED140AF2EE040A0C
:102D300030EE200ABCEEC00A10EE100A81F8210025
:102D40000C4890ED150AF2EE040A30EE200ABCEEB3
:102D5000C00A10EE100A1DE03800002039000020E3
:102D6000240800201407002070080020600A0020BA
:102D7000DC0900205C07002000000000F20B0020AE
:102D80003A00002044080020B8080020380700203E
:102D9000CDCCCC3D81F82200294890ED160AF2EE08
:102DA000040A30EE200ABCEEC00A10EE100A81F8C8
:102DB0002300244890ED130AF2EE040A30EE200AB4
:102DC000BCEEC00A10EE100A81F824001C4890EDF9
:102DD000130AF2EE040A30EE200ABCEEC00A10EE2E
:102DE000100A81F82500164890ED150AF2EE040A43
:102DF00030EE200ABCEEC00A10EE100A81F8260060
:102E00000F4890ED140AF2EE040A30EE200ABCEEF0
:102E1000C00A10EE100A81F82700084690F8280032
:102E2000401C81F82800084690F828000F2802DD91
:102E3000002081F8280004480DF0D4FF00BFA9E568
:102E4000DC0900205C0700204408002070470000D7
:102E50000246D0B24840034B33F8100080EA2220EB
:102E600070470000741B030830B5034600200BE0D8
:102E70001C5C156884EA1564054D55F824401568F6
:102E800084EA05241460401C8842F1D330BD000060
:102E9000741D030870B5054605B970BD002406E031
:102EA000284600F0EFF800B903E0601CC4B2032C20
:102EB000F6D300BF00BFF0E7FEB506460C46154648
:102EC0004EB90620094B0A4A0A498DE831000A48E2
:102ED00000F0A4F8FEBD0420084B094A09498DE81A
:102EE0003100094800F09AF8F4E700008200002061
:102EF0008100002080000020200E0020850000209E
:102F0000840000208300002078100020034800780F
:102F1000034909780844C0B27047000082000020CD
:102F200085000020002008490870084908700849F9
:102F3000087008490870084908700849087001209D
:102F400007490870704700008000002081000020C1
:102F500082000020830000208400002085000020E3
:102F6000860000200748007808B90020704706480E
:102F7000007800EBC00101EB0010044901EB800078
:102F8000F4E7000085000020840000207810002075
:102F90000748007808B9002070470648007800EB21
:102FA000C00101EB0010044901EB8000F4E70000D0
:102FB0008200002081000020200E002008480078B8
:102FC00000B9704707480078401C00F0030005492D
:102FD000087003480078401E0149087000BFF0E700
:102FE00085000020840000200A48007800B970475E
:102FF00009480078401C0621B0FBF1F201FB1200E9
:103000000549087003480078401E0249087000BF57
:10301000EDE7000082000020810000202DE9F05F34
:1030200007460C4693461D46DDE90B9ADDF82880DD
:10303000B9F1000F05D0BAF1000F02D02878404551
:1030400002DB0020BDE8F09F207800EBC00101EB1F
:10305000001007EB8006242249463046FFF70BF9A3
:103060004022514606F12400FFF705F92078401C64
:10307000B0FBF8F108FB110020702878401C287084
:103080000120DFE770B50546FFF782FF044654B123
:103090002146284600F018F818B1FFF7A5FF0120D7
:1030A00070BD0020FCE7FFF75DFF044654B12146E8
:1030B000284600F009F818B1FFF780FF0120EFE77C
:1030C0000020EDE70020EBE770B505460C4605B1A2
:1030D0000CB9002070BD284603F04EFB08B9002053
:1030E000F8E704F124022146284603F0F7F908B175
:1030F0000020EFE70020024908700120EAE7000005
:103100008600002010B504460CB9002010BDFFF762
:10311000FDFE08B10020F9E7204603F02DFB03284F
:1031200001D20020F2E701200149087000BFEDE75D
:103130008600002010B509F003FD0448FFF7AAFE41
:10314000FFF708FC0148FFF7A5FE10BDB8020020FC
:1031500010B50B4840780A49097888420FD00848D2
:1031600000780749487001F013F90AF02FFB00209E
:1031700004490870B3EE0E0A014880ED050A10BD3F
:1031800014070020B808002010B52DED028B9FED2C
:10319000950AB0EE408A94484078012801D19249BE
:1031A00008719248007810B1002091494870904809
:1031B00040788F490978884204D0B7EE000AB0EE13
:1031C000408A0CE0884800798A490988884206D0FC
:1031D0008548007918B1B7EE000AB0EE408AB5EE26
:1031E000C08AF1EE10FA7DD080480078002879D1AD
:1031F00081490870814890ED060AF7EE000AB4EEA6
:10320000E00AF1EE10FA6DD27748007901286AD110
:103210007548407801280CD17948808800EE100A62
:10322000B8EE400ADFED770A20EE200AB0EE408AC1
:103230000BE07348008A00EE100AB8EE400ADFED9A
:10324000710A20EE200AB0EE408A6C4890ED000A28
:10325000D0ED020AB0EE001A70EEC10AB4EEE00A38
:10326000F1EE10FA56D2B3EE0E0AB4EEC08AF1EEC9
:1032700010FA4FDB90ED020AF3EE0D0AB4EEE00A0D
:10328000F1EE10FA3EDB90ED020ADFED5F0AB4EEDC
:10329000E00AF1EE10FA35D201F06AF80AF096FA77
:1032A0005A480088401C5949088008460088282848
:1032B00018DB9FED4C0A504880ED070A4C48007817
:1032C0004B49487000204C49887008724B4890ED7B
:1032D000020AF0EE000A30EE200A084680ED060AE7
:1032E000022001E073E01DE008703F480079414989
:1032F00008800020454908809FED3A0A444880ED47
:10330000080A6CE000204149088001F041F80AF009
:103310005DFA64E000203D49088001F039F80AF0C8
:1033200055FA5CE030480079022858D12E484078A0
:1033300001280CD13248808800EE100AB8EE400A0D
:10334000DFED300A20EE200AB0EE408A0BE02C4878
:10335000008A00EE100AB8EE400ADFED2A0A20EEDD
:10336000200AB0EE408A254890ED000AF0EE000AEF
:1033700078EE600AB4EEE00AF1EE10FA28D2B3EE6D
:103380000E0AB4EEC08AF1EE10FA21DB00F0F0FF75
:103390000AF01CFA1D480088401C1C490880084699
:1033A00000881E281BDB0020104908701048007898
:1033B0000F49487000201049887008720320087077
:1033C000094800790B49088000201049088006E070
:1033D00000200E49088000F0DBFF0AF0F7F9BDEC91
:1033E000028B10BD00000000600A0020E80B0020E6
:1033F0001407002028000020B8080020DC09002065
:1034000024080020CDCCCC3D000070422A000020D2
:103410002C090020704700001648807918B105205B
:10342000144908701DE013484078022807D111485C
:103430008078012803D103200E49087011E00D485F
:103440004078012807D10B488078012803D1032058
:103450000849087005E00748407810B9012005497F
:1034600008700548407D032802D1022001490870F8
:1034700070470000600A0020240800201A484078A5
:1034800002282CD11848407980B91848C08900EE2C
:10349000100AB8EE400AF7EE000AB4EEE00AF1EEC8
:1034A00010FA03DB0120104908711BE00E48407937
:1034B000012810D10D48008A00EE100AB8EE400A2B
:1034C000F3EE0E0AB4EEE00AF1EE10FA03DB02208E
:1034D0000549087106E000200349087102E0012057
:1034E0000149087170470000600A0020240800208C
:1034F0002D48807918B105202B49087044E02A48EE
:103500004078022803D028484078012803D1264873
:103510008078012838D024484078022806D12248F3
:10352000807818B90220204908702DE01E484078A4
:10353000012806D11C48807818B902201A49087061
:1035400022E01A48407DC8B9174890ED030AF3EE0F
:103550000E0AB4EEE00AF1EE10FA0BDD0520124976
:1035600008701348406820F4002000F5002010493E
:10357000486009E001200C49087005E00A484078DD
:1035800010B90120084908700848407D032802D17D
:1035900002200549087004480078032802D0002062
:1035A0000149087170470000600A002024080020CB
:1035B0001407002010B502460020002349B142B193
:1035C00000BF04E0CC5C0444E0B25C1CE3B2934274
:1035D000F8DB80F0FF0010BDF0EE400A10B99FED5F
:1035E0000E0A7047C0ED040A90ED030A90ED021A2E
:1035F000D0ED041A01EE210A80ED030A90ED030AD2
:1036000090ED011AD0ED041A01EE210A80ED070AAF
:1036100090ED070AE5E700000000000010B56D48D6
:1036200090ED020ADFED6C0AB4EEE00AF1EE10FA5A
:1036300018DB0120694908710020C8809FED680AE5
:10364000084680ED070A08200AF00CF9DFED650A4C
:103650009FED650A00220121104600F0A7FE09F047
:10366000D9FE10BD6148407828B900206049087033
:1036700048708870A9E00CF05DFA584890ED080A8F
:10368000DFED5C0AB4EEE00AF1EE10FA6FDD0AF04D
:103690003FF8524890ED070A4E48D0ED070A30EE49
:1036A000600A554880ED040A90ED040ADFED530AE4
:1036B000B4EEE00AF1EE10FA04DD9FED500A80ED61
:1036C000040A0DE04C4890ED040ADFED4D0AB4EE1B
:1036D000E00AF1EE10FA03D29FED490A80ED040AE8
:1036E0004548D0ED040AB0EE600A9FED461ADFEDC2
:1036F000460A09F0DFFB404880ED070A90ED080A12
:10370000424880ED000A3C4890ED080AD0ED070AD7
:1037100030EE200A80ED070A90ED070ADFED3C0A43
:10372000B4EEE00AF1EE10FA03DD9FED390A80ED08
:10373000070A314890ED070ADFED2A0AB4EEE00AE5
:10374000F1EE10FA14D29FED270A80ED070A90EDF2
:10375000070A80ED080A90ED070AF0EE400A9FED97
:10376000220A00220121104600F020FE2DE010E088
:10377000214890ED070A80ED080A90ED070AF0EE67
:10378000400A9FED190A00220121084600F00EFEB2
:103790001BE0002016490870487088709FED100AE1
:1037A000154880ED070A9FED0E0A80ED080A9FED8F
:1037B0000C0A084680ED050A9FED090A80ED030A10
:1037C0009FED070A054880ED070A09F023FE00BFB8
:1037D00047E70000DC09002000002042B808002074
:1037E000000000000AD7A33C00409C47600A00206C
:1037F00038070020CDCCCC3D2C090020CDCC4C3E50
:10380000CDCC4CBE6F12833A6F12033A14000020E5
:10381000CDCCCC3E10B50E48406830B90C48C07ACB
:1038200018B100F0A5FD09F0D1FF09F0A5FB0020BB
:1038300008498870DFED080A9FED080A002211464A
:10384000104600F0B3FD00200249C88010BD000002
:1038500014070020B80800200AD7A33C00247448AD
:1038600010B52DED028B9FED650AF0EE408A0CF04D
:1038700061F96348407848B1624890ED020ADFED93
:10388000620AB4EEE00AF1EE10FA1FD29FED5F0A71
:103890005F4880ED050AB1EE040A5E4880ED030A38
:1038A0009FED560A80ED050A9FED540A584880EDB9
:1038B000070A594890ED050AF0EE400A9FED530AB9
:1038C00000221146104600F071FD93E0504890ED43
:1038D000080AF6EE000AB4EEE00AF1EE10FA64DD32
:1038E00009F096FE0CF088FA464890ED070A484821
:1038F000D0ED070A30EE608AB0EE480A4548FFF77F
:103900006BFEF0EE408A9FED450A28EE800A4048A3
:1039100080ED050A90ED050ADFED3C0AB4EEE00A01
:10392000F1EE10FA08DD9FED390A80ED050AB1EEDF
:10393000040A384880ED030A354890ED050ADFEDAA
:10394000380AB4EEE00AF1EE10FA08D29FED340A1C
:1039500080ED050A9FED330A2E4880ED030A0CF036
:1039600071FC10B900202C4988702948D0ED050A57
:10397000B0EE600A28488278F6EE000A0121084677
:1039800000F014FD1F4890ED050AF1EE000AB4EEB8
:10399000E00AF1EE10FA2DD29FED180A1E4880EDD4
:1039A000030A00201C49887024E000201849C880C0
:1039B000062009F057FF9FED150A154880ED050A0E
:1039C000B1EE040A134880ED030A9FED0C0A80ED66
:1039D000050A9FED0A0A0E4880ED070A0E4890ED91
:1039E000050AF0EE400A9FED090A00221146104632
:1039F00000F0DCFCBDEC028B10BD000000000000FC
:103A0000600A0020DC09002000001C4200247448E9
:103A1000B8080020E4080020380700200050434781
:103A200000606A479999993F10B5264800790228A5
:103A300025D100202349C8809FED230A084680ED48
:103A4000070A062009F00EFF9FED200A1D4880EDB1
:103A5000050AB1EE040A1E4880ED030A9FED1A0A1A
:103A600080ED050A1748D0ED050AB0EE600ADFEDDB
:103A7000190A00220121104600F098FC1FE0DFED3A
:103A8000160A9FED160A00220121104600F08EFC56
:103A9000134890ED060AF7EE000AB4EEE00AF1EEE4
:103AA00010FA0CD20748C088401C0649C880084656
:103AB000C088282803DB022008710020C88009F094
:103AC000A9FC10BDB80800200000000000247448C4
:103AD000E4080020CDCC4C3D0AD7233D00409C4754
:103AE000DC09002010B50CF025F8304890ED080AEC
:103AF000F6EE000AB4EEE00AF1EE10FA35DDC08809
:103B0000401C2A49C8800846C088B0F5C87F12DB2F
:103B10009FED270A084680ED050AB1EE040A254804
:103B200080ED030A9FED240A80ED050A0020C8807D
:103B3000072009F097FE9FED200A1C4880ED070A38
:103B4000C08800EE100AB8EE401ADFED1C1A9FED97
:103B50001C0A01EE210AF0EE400A9FED150A002230
:103B60000121084600F022FC1EE09FED110A0F48DB
:103B700080ED050AB1EE040A0E4880ED030A9FEDC0
:103B80000E0A80ED050A9FED0C0A084880ED070A31
:103B90000C4890ED050AF0EE400A9FED050A002260
:103BA0001146104600F002FC10BD0000B8080020CD
:103BB00000247448E4080020000000006F12833ADB
:103BC000CDCC4C3D3807002010B5B3EE0E0A274887
:103BD00080ED050A407825490978884241D024487B
:103BE00090ED000AF3EE0C0AB4EEE00AF1EE10FAE2
:103BF0002FD290ED020AF1EE040AB4EEE00AF1EEE3
:103C000010FA26D21948007A18BB1A480088401CBE
:103C10001849088008460088032825DB13480078E7
:103C20001249487000F0A4FB09F0D0FD00201249B1
:103C30008870B3EE0E0A0D4880ED050A24210F4866
:103C4000FEF732FB01200C4908700020094908806A
:103C50000AE000200749088000F09AFB09F0B6FD51
:103C600002E000200349088010BD00001407002076
:103C7000DC09002026000020B808002008090020E8
:103C800010B52DED028B5B4890ED010AB0EE408A35
:103C90005948407801280AD15848808800EE100A17
:103CA000B8EE400ADFED560A60EE208A09E053487C
:103CB000008A00EE100AB8EE400ADFED510A60EE0D
:103CC000208A5048C0ED068A807800287ED14D4871
:103CD000007A00285DD100F04BFB09F077FD002051
:103CE000484988709FED480A484880ED040A012041
:103CF000464908704870002088709FED450A0846C4
:103D000080ED050AB2EE040AB4EEC08AF1EE10FAB4
:103D100004D29FED3F0A80ED050A2BE0B3EE040AC2
:103D2000B4EEC08AF1EE10FA05D29FED3A0A374898
:103D300080ED050A1EE0B3EE0E0AB4EEC08AF1EE85
:103D400010FA05D29FED340A304880ED050A11E0E3
:103D50009FED320AB4EEC08AF1EE10FA05D29FED63
:103D6000300A2A4880ED050A04E09FED2E0A274814
:103D700080ED050A00202C490880224890ED060AB3
:103D8000B4EEC80AF1EE10FA30D201201D490872D3
:103D90002CE009F029FD24480088401C22490880B5
:103DA00008460088B0F57A7F05DD01201549887046
:103DB00000201D4908809FED140A144880ED040A74
:103DC0000020124908700120487000E00CE000203B
:103DD00088709FED100A084680ED050A9FED0C0AD9
:103DE000124880ED080A01E000F0ACF8BDEC028B4F
:103DF00010BD0000DC090020600A0020240800201B
:103E0000CDCCCC3DB808002000401C47380700202E
:103E10000AD7233C0AD7A33C8FC2F53C00002042BE
:103E20000AD7233DCDCC4C3D5C0000200809002082
:103E300010B52DED048BB3EE0E0A364880ED060A60
:103E4000354890ED010AF0EE409A324890ED060AAE
:103E5000B4EEE90AF1EE10FA04DD9FED300A39EE16
:103E6000809A02E02B4890ED069A79EE690AB0EE4E
:103E7000600A9FED2B1ADFED2B0A2B4809F01AF888
:103E8000B0EE408A2448D0ED070A9FED281A71EE63
:103E9000600AB0EE600A9FED261ADFED260A26487A
:103EA00009F008F8F0EE408AB4EEE88AF1EE10FA74
:103EB00001DDB0EE688A1C4890ED080A30EE080A71
:103EC000B0EE408A9FED1D0AB4EEC08AF1EE10FA02
:103ED00003DD9FED1A0AB0EE408A134880ED088A90
:103EE00080ED078A00F054FA9FED120AB4EEC08A02
:103EF000F1EE10FA01D3012100E000210846F0EEB6
:103F0000480A9FED0F0A0022012100F04FFABDEC94
:103F1000048B10BDB8080020DC0900200AD7233C20
:103F20006F12833A0AD7233D08090020CDCCAC405C
:103F30006F12833B0AD7A33C2C090020CDCCCC3E8A
:103F40000060EA4710B52DED048B9FED6E0AB0EED0
:103F5000409A6D4890ED010AF0EE408A6B48008A65
:103F600000EE100AB8EE400ADFED690A20EE200AE2
:103F7000B0EE408AB3EE0E0AB4EEC08AF1EE10FA4B
:103F800070DB9FED640AB4EEC08AF1EE10FA69D8D6
:103F900061480079012805D1002060490870487007
:103FA0008870ACE000F0F4F938EE680A5C4880ED07
:103FB000040A90ED040ADFED5B0AB4EEE00AF1EECC
:103FC00010FA04DD9FED570A80ED040A0DE0544815
:103FD00090ED040ADFED540AB4EEE00AF1EE10FAB7
:103FE00003D29FED510A80ED040A4D48D0ED040A3A
:103FF000B0EE600A9FED4D1ADFED4D0A08F05AFF52
:10400000474880ED070A90ED070AD0ED080A30EE28
:10401000200A80ED070A3C4890ED060ADFED450ACC
:10402000B4EEE00AF1EE10FA1DDDB3EE0E0AF4EE86
:10403000C08AF1EE10FA0CDBB3EE0E0A78EEC00A7D
:104040009FED3D1A9FED3D0A00EE810AB0EE409AC9
:1040500015E0DFED3B0A9FED3B0A08EEA00AB0EE4B
:10406000409A0CE046E0B3EE0E0A78EE400A9FED6F
:10407000361A9FED360A00EE810AB0EE409A3448B7
:1040800090ED000ADFED330A20EE200ADFED2B0A67
:1040900009EE200A80ED000A214890ED070A2C481D
:1040A000D0ED000AB4EEE00AF1EE10FA04DD90ED76
:1040B000000A1B4880ED070A194890ED070A80EDB9
:1040C000080A014691ED070AF0EE400A91ED070A51
:1040D0009FED211AB4EEC10AF1EE10FA01D30121CD
:1040E00000E0002108469FED1D0A0022012100F09A
:1040F0005DF904E000200949087048708870BDEC43
:10410000048B10BD00000000DC0900202408002002
:10411000CDCCCC3D00007042600A00203807002062
:10412000080900200AD7233C666666BF6F12833AEF
:104130000AD7233DCDCC0C40A69B443BCDCC4C3D77
:10414000A69BC43A0AD7A33C6F12833B8FC2753D2E
:10415000580000203333733F4260E53B00401C476A
:10416000704700000A48807918B105200849087096
:1041700005E00748407810B102200549087005485D
:10418000407D032802D102200149087070470000D9
:10419000600A00202408002010B51548006C04684F
:1041A000134890F8440000F01F010220884020408E
:1041B000E8B10F480068006800F0200058B90C48CA
:1041C0000068006820F00A000949096808600120B9
:1041D000074981F82500064890F8440000F01F01C7
:1041E000022088400249096C48600BF0FBFD10BDBD
:1041F0006401002010B51548006C0468134890F85D
:10420000440000F01F01022088402040E8B10F4820
:104210000068006800F0200058B90C480068006889
:1042200020F00A000949096808600120074981F85F
:104230002500064890F8440000F01F010220884045
:104240000249096C48600BF0D3FD10BDC401002089
:1042500010B5024801F066FF10BD000040060020C6
:1042600010B5024801F05EFF10BD0000A00600205E
:1042700030B5114D0468AC4206D210490478083CB0
:104280001425B4FBF5F208E00C4920310478083C11
:104290001425B4FBF5F404F108020B46446CA408A1
:1042A00003EB84048464054C8034C46402F01F056D
:1042B0000124AC40046530BD0804024000080240FF
:1042C000027902F07F014A1E064B03EB820242652F
:1042D000044A403282654A1E02F01F0301229A40BE
:1042E000C26570470009024030B5D0E913546C60D4
:1042F000446D14B1D0E916546C6090F8444004F059
:104300001F050124AC40056C6C6004686360846820
:10431000102C04D10468A2600468E16003E0046822
:10432000A1600468E26030BD70B505460E461446D3
:10433000A5F2892020B151280AD06E280FD100E0C3
:104340000EE0E0B231460CF031F80649087007E0A3
:10435000E0B231460CF060F80349087000E000BF9D
:1043600000BF70BD380000203900002070470000F9
:1043700010B500224FF40051034802F009FE00205E
:104380000249887210BD0000000800481407002090
:1043900010B501225103034802F0FAFD0120024941
:1043A000887210BD0008004814070020012800D9B9
:1043B0000120012900D90121012A00D90122B7EEEB
:1043C000001AB4EEC10AF1EE10FA03D29FED101AF2
:1043D000B0EE410AF5EEC00AF1EE10FA04D29FEDFC
:1043E0000D1AF0EE410A0AE0B7EE001AF4EEC10A27
:1043F000F1EE10FA03DDB7EE001AF0EE410A064BBB
:10440000187059709A7083ED040AC3ED050A70475D
:1044100000247448000000003807002072B600BF76
:10442000FEE7000010B5024802F0AEF910BD000032
:10443000B802002010B51D4A1D4C0368A34201D1EB
:1044400002F554721B4C0368A34201D102F5D462F9
:1044500002640368D3F8803023F4F814838E44EAAE
:1044600003430468C4F8803002F1700343640368B6
:10447000D3F8803023F0706490F8383044EA036356
:104480000468C4F8803002F1B0038364D833C36495
:10449000D833036518334365114602E000230B60EF
:1044A000091D02F554739942F8D310BD00A40040D1
:1044B00000680040006C00402DE9F04105461446BC
:1044C0001E46D1F804C0BCF1000F0AD1D1F810C0CB
:1044D000D1F808804CEA080CB1F800804CEA884317
:1044E0000BE0D1F810C04CF0804CD1F808804CEAB9
:1044F000080CD1F800804CEA080391F82080D1F82C
:104500001CC04CEA086CD1F818804CEA080CD1F8B1
:1045100014804CEA080CB1F80C804CEA084706EB12
:10452000C608D5F854C00CEBC8021360121D176002
:10453000121D002019E000F1030C14F80CC04FEA22
:104540000C6800F1020C14F80CC048EA0C4800F1A9
:10455000010C14F80CC048EA0C2C14F800804CEA4A
:10456000080CC2F800C0121D001DDFF81480D1F83D
:104570000CC018F80CC08445DDD8BDE8F0810000FF
:10458000A0110308704700000848407830B1074880
:10459000807918B902200549087005E00348807940
:1045A00010B901200149087070470000600A00201E
:1045B00010B50446002240210E4802F0E9FC90208C
:1045C00000F018FAFF2000F015FAFF2000F012FAB0
:1045D000002000F00FFAFF2000F00CFA2070FF20FE
:1045E00000F008FA607001224021024802F0D0FC7D
:1045F00010BD00000004004810B504460022402110
:104600000B4802F0C5FC9F2000F0F4F9FF2000F0F9
:10461000F1F92070FF2000F0EDF96070FF2000F04C
:10462000E9F9A07001224021014802F0B1FC10BD5F
:10463000000400482DE9F04105460C461746264681
:1046400000F092F800224021124802F0A1FC022062
:1046500000F0D0F9C6F3074000F0CCF9C6F307200C
:1046600000F0C8F9F0B200F0C5F94FF0000805E01D
:1046700015F8010B00F0BEF908F10108B845F7D3B1
:1046800001224021034802F083FC09F0F3FBBDE85E
:10469000F08100000004004870B504460D4616463F
:1046A000002332462946204600F002F870BD000083
:1046B0002DE9F04704460F46904699463D46B9F12C
:1046C000000F06D101224021144802F061FC00F0E5
:1046D0005DF800224021114802F05AFC032000F04E
:1046E00089F9C5F3074000F085F9C5F3072000F00C
:1046F00081F9E8B200F07EF9002605E0FF2000F025
:1047000079F904F8010B761C4645F7D301224021C4
:10471000024802F03DFCBDE8F087000000040048BC
:1047200070B50446254609F0A5FB00F01DF80022EF
:1047300040210C4802F02CFC202000F05BF9C5F36E
:10474000074000F057F9C5F3072000F053F9E8B22D
:1047500000F050F901224021024802F019FC09F052
:1047600089FB70BD0004004810B5002240210648B6
:1047700002F00EFC062000F03DF901224021024823
:1047800002F006FC10BD000000040048F8B54948DE
:104790000068476847480068406820F0E3004549E2
:1047A0000968486043480068006820F040004149BB
:1047B00009680860404D00E06D1E3E480068806852
:1047C000C0F3C01008B1002DF6D100240AE039482A
:1047D0000068806800F0010000B905E03548006815
:1047E000007B641C202CF2D300BF00BF002000908F
:1047F00030480068C06800902E48006880680090CB
:1048000000BF00BF00BF002000902A4800688068F9
:10481000009000BF00BF27480068806800F01000CB
:10482000102804D14FF6EF702249096888602148AA
:104830000068806800F02000202810D100BF002010
:1048400000901C480068806800901A480068006862
:1048500020F0400017490968086000BF00BF1548F4
:104860000068006840F0400012490968086011487B
:104870000068806886B206F4B87008B100F09AF853
:1048800000BF00200B4981F85C0000BF012081F8C7
:104890005D000020086608460068006800F04000DF
:1048A00030B908460068006840F0400009680860B8
:1048B000F8BD000018040020400D030000B587B0CB
:1048C00000BF3848006E40F48050364908660846FC
:1048D000006E00F48050019000BF00BF00BF08468A
:1048E000C06C40F00200C8640846C06C00F00200D2
:1048F000019000BF00BF38212B4802F0BDF9102005
:1049000002900220039000200490032005900520CF
:10491000069002A9244802F045FA202002900520C2
:10492000069002A9204802F03DFA0820029002A950
:104930001D4802F037FA00BF1A48006E40F480505C
:10494000184908660846006E00F48050019000BFC8
:1049500000BF1648164908604FF482704860002175
:10496000134881604FF4E061C160022101610121BF
:104970004161490281610821C161002101624162F6
:1049800081620A21C16204F06DF90948006800687B
:1049900040F04000064909680860FF2000F02AF84E
:1049A00007B000BD00100240000400480030014084
:1049B0001804002010B50D480068006820F0400081
:1049C0000A49096808600A48006C40F480500849A8
:1049D00008640846006C20F480500864034804F022
:1049E00041F9202000F028F810BD00001804002034
:1049F0000010024011B583B0FF2002904FF47A708E
:104A0000012302AA03A900900A4804F0E5F904462C
:104A100064B100BF0020019006480068C0680190A2
:104A2000044800688068019000BF00BF9DF808003E
:104A300004B010BD1804002010490968096821F06D
:104A400040010E4A126811600C49096809684FF666
:104A5000C7721140094A126811600849096809685B
:104A600041EAC001054A12681160044909680968F1
:104A700041F04001014A126811607047180400209B
:104A8000704700000A48807918B10520084908706D
:104A90000DE00748407818B902200549087006E083
:104AA0000448407D032802D1022001490870704764
:104AB000600A002024080020F8B504460D460020B6
:104AC000009000BF94F85800012801D10220F8BDE1
:104AD000012084F8580000BF2046FDF7B1FD0646CE
:104AE0008EBBE06D20F4885040F00200E065206845
:104AF00081681B4A114005F0804242F00042114398
:104B0000816000BF13E00098401C00901549009898
:104B100088420CD3E06D20F0020040F01000E06508
:104B200000BF002084F8580000BF0120CFE72068B4
:104B30008168C90F0029E6D1E06D20F0020040F045
:104B40000100E06504E0FFE7E06D40F01000E06583
:104B500000BF002084F8580000BF3046B7E70000CF
:104B6000C0FFFF3F02DE04002DE9F0439BB0044686
:104B70000E464FF00008306800B100BF00BF94F847
:104B80005800012803D102201BB0BDE8F0830120AA
:104B900084F8580000BF0020179018902068B0F1EA
:104BA000A04F02D15848009008E058492068884238
:104BB00002D15748009001E000200090009850B9C1
:104BC000E06D40F02000E06500BF002084F8580050
:104BD00000BF0120D8E7009806F0ADFD0746206829
:104BE00006F0A9FD00287DD1002F7FD12068B0F10B
:104BF000A04F03D044492068884201D1454800E0D5
:104C0000454805463068D8B394F83800716841EAE1
:104C10004030A96821F460410843A8602068B0F1E1
:104C2000A04F03D038492068884201D1394800E0BC
:104C30003948384988420AD14FF0A04006F06CFD4F
:104C40008146314806F068FD49EA00000DE02F4832
:104C500006F062FD81462E4806F05EFD49EA000935
:104C60002E4806F059FD49EA0000E0BBB168306803
:104C70000843A96840F61F7291430843A8603BE0CF
:104C8000FFE7A86820F46040A8602068B0F1A04F5A
:104C900003D01D492068884201D11E4800E01E480B
:104CA0001C4988420AD14FF0A04006F035FD8146EC
:104CB000154806F031FD49EA00000DE0134806F002
:104CC0002BFD8146124806F027FD49EA00091348EA
:104CD00006F022FD49EA000028B9A86840F61F71D5
:104CE000884301E002E007E0A86005E0E06D40F0E5
:104CF0002000E0654FF0010800BF002084F8580054
:104D000000BF404640E70000000100500004005092
:104D1000000500500003005000070050000600503E
:104D20002DE9F84F05460C464FF0000A0020009090
:104D3000FE49E068884200D000E000BF00BF95F85F
:104D40005800012802D10220BDE8F88F012085F823
:104D5000580000BF286806F0E9FC00287DD12968CA
:104D6000D4E9002001F1300CC0F3012B0CEB8B03D4
:104D7000D3F800C000F01F0E4FF01F0B0BFA0EFB14
:104D80002CEA0B0C00F01F0BC2F3846E0EFA0BFE24
:104D90004CEA0E0CC3F800C000BF286806F0C6FC41
:104DA0008146286806F0A9FC8046B9F1000F64D15D
:104DB000B8F1000FFBD1A068B0F1004F0AD1216813
:104DC0000022286806F0C4FC4FF00041286806F075
:104DD000E4FC08E0A2682168286806F0B9FC00211C
:104DE000286806F0DAFC60692968C968C1F3C10166
:104DF000490000FA01F7206904283FD0286822689A
:104E0000216900F1600C0CEB8103D3F800C0DFF8DE
:104E100020B30CEA0B0C02F0F84B4BF0004B4BEAC2
:104E2000070B4CEA0B0CC3F800C000BF2868A2694E
:104E3000216900F1600C0CEB8103D3F800C02CF069
:104E4000807C4CEA020CC3F800C000BF2868227FB7
:104E50002169012A02D1520601E0F6E1002213463F
:104E600000F1600C0CEB8102D2F800C02CF0007C49
:104E70004CEA030CC2F800C000BFA7E0002128687C
:104E800006F032FCC0F3120030B90021286806F0A9
:104E90002BFCC0F3846007E00021286806F024FCA6
:104EA00090FAA0F0B0FA80F02168C1F3120119B9AC
:104EB0002168C1F3846104E0216891FAA1F1B1FA9B
:104EC00081F1884204D100221146286806F05AFC7C
:104ED0000121286806F008FCC0F3120030B9012156
:104EE000286806F001FCC0F3846007E0012128680F
:104EF00006F0FAFB90FAA0F0B0FA80F02168C1F356
:104F0000120119B92168C1F3846104E0216891FAA2
:104F1000A1F1B1FA81F1884204D10022012128686F
:104F200006F030FC0221286806F0DEFBC0F3120018
:104F300030B90221286806F0D7FBC0F3846007E08F
:104F40000221286806F0D0FB90FAA0F0B0FA80F0B9
:104F50002168C1F3120119B92168C1F3846104E029
:104F6000216891FAA1F1B1FA81F1884204D10022BD
:104F70000221286806F006FC0321286806F0B4FB2D
:104F8000C0F3120030B90321286806F0ADFBC0F36E
:104F9000846007E00321286806F0A6FB90FAA0F0E1
:104FA000B0FA80F02168C1F3120119B92168C1F388
:104FB000846104E0216891FAA1F1B1FA81F188429B
:104FC00004D100220321286806F0DCFB286806F0E3
:104FD0009EFB002870D12868E2682168D0F8B0C034
:104FE000C1F312032CEA030C02F0180B514B23FA05
:104FF0000BF30B404CEA030CC0F8B0C000BF4B49A8
:10500000E068884258D12368C3F312031BB92368B0
:10501000C3F3846304E0236893FAA3F3B3FA83F33E
:105020005B1C03F01F03092B3ED82368C3F3120354
:105030001BB92368C3F3846304E0236893FAA3F3E2
:10504000B3FA83F35B1C03F01F034FF0010C0CFA5F
:1050500003FC2368C3F312031BB92368C3F38463FF
:1050600004E0236893FAA3F3B3FA83F35B1C03F021
:105070001F034CEA836C2368C3F312031BB9236834
:10508000C3F3846304E0236893FAA3F3B3FA83F3CE
:105090005B1C03F01F0303EB43034FF0000B4BEAD1
:1050A00003534CEA03033FE02368C3F3120323B91D
:1050B0002368C3F3846305E042E0236893FAA3F313
:1050C000B3FA83F35B1C03F01F034FF0010C0CFADF
:1050D00003FC2368C3F312031BB92368C3F384637F
:1050E00004E0236893FAA3F3B3FA83F35B1C03F0A1
:1050F0001F034CEA836C2368C3F312031BB92368B4
:10510000C3F3846304E0236893FAA3F3B3FA83F34D
:105110005B1C03F01F030A3B03EB43034FF0007BD0
:105120004BEA03534CEA0303194605E000007F40B5
:1051300000F0FF03FFFF0700A268286806F008FBE5
:10514000484920680840002842D02968B1F1A04FA2
:1051500003D0454A2968914201D1444900E04449BD
:10516000084606F0B7FA064642492068884203D04E
:105170004149206888422CD106F4000048BB2868C9
:10518000B0F1A04F03D03D492868884263D12A6816
:10519000B2F1A04F03D0344B2A689A4201D1334A6E
:1051A00000E0334A104646F4000106F0E5FA3448C0
:1051B00000683449B0FBF1F0401C00EB4000800077
:1051C000009002E00098401E009000980028F9D15D
:1051D00041E02D49206888421BD106F08070C0B99B
:1051E00021492868884236D028492868884232D028
:1051F0002A68B2F1A04F03D01B4B2A689A4201D112
:105200001A4A00E01A4A104646F0807106F0B4FAD5
:1052100021E01F49206888421DD106F48000D0B9E2
:1052200011492868884216D02A68B2F1A04F03D0ED
:105230000B462A689A4201D10C4A00E00C4A1046FB
:1052400046F4800106F098FA05E0E86D40F0200091
:10525000E8654FF0010A00BF002085F8580000BF44
:10526000504671E500000880000100500003005026
:1052700000070050000021C31000C090000600503D
:1052800010000020400D0300000052C70005005030
:10529000000084CB2DE9F84304464FF000080020BD
:1052A000009014B90120BDE8F883606920B194F83A
:1052B0002400012800D100BFE06D30B9204600F085
:1052C00045F90020206684F8580020688168C1F301
:1052D000407131B120688168914A1140816000BFFE
:1052E00000BF206806F01DFAB0B9206881688D4AB9
:1052F000114041F08051816000BF8B4800688B49AC
:10530000B0FBF1F0401C4000009002E00098401E0D
:10531000009000980028F9D1206806F002FA48B9F8
:10532000E06D40F01000E065206E40F00100206666
:105330004FF00108206806F0F9F90646E06D00F02C
:10534000100000287ED1002EFCD1E06D20F480708A
:1053500040F00200E065206806F0D9F988BB2068BB
:10536000B0F1A04F03D072492068884201D1714842
:1053700000E071486F4988420AD14FF0A04006F022
:10538000C6F981466A4806F0C2F949EA00000DE014
:105390006A4806F0BCF98146694806F0B8F949EA5E
:1053A0000009684806F0B3F949EA000048B92268E4
:1053B000B2F1A04F03D05E4B22689A4202D15D4AFF
:1053C00001E009E05C4A10466168826822F47C12C0
:1053D0000A43826000BF00BF607FE16B41EA40305A
:1053E000E1680843A168084394F8241040EA0145A5
:1053F00094F82400012803D1208D401E45EA404541
:10540000E06A28B1A08D00F47870216B0843054351
:105410002068C0684C49084028432168C86020685B
:10542000006920F04060616B0843216808612068D2
:1054300006F063F90746EEBBE7BB207F002141EA97
:10544000803100E064E094F8380041EA40052068CB
:10545000C06844F20201884328432168C86020697B
:1054600080B12068006940F48030216808612068BC
:10547000D0F8C0006FF30D00216908432168C1F81E
:10548000C0000DE02068006920F4803021680861C8
:105490002068D0F8C0006FF30D002168C1F8C0008B
:1054A00094F84000012813D1606C40F00101A06C19
:1054B000084300E012E0E16C0843216D08432168D5
:1054C000096940F2FC72914308432168086105E0D4
:1054D0002068006920F001002168086160690128E6
:1054E00009D12068006B20F00F00216A491E084393
:1054F0002168086305E02068006B20F00F00216838
:105500000863E06D20F0020040F00100E06505E076
:10551000E06D40F01000E0654FF001084046C2E643
:10552000C0FFFF5FC0FFFF7F10000020400D0300A1
:10553000000100500003005000070050000400501C
:1055400000050050000600500740F0FF10B59CB069
:105550000446142117A8FCF7A7FE542102A8FCF763
:10556000A3FE2068B0F1A04F7DD14FF4004002901F
:105570008003139002A802F033FD08B1FEF74EFF3E
:1055800085480068401C8449086008460068012876
:105590000DD100BF8148C06C40F400507F49C86401
:1055A0000846C06C00F40050019000BF00BF00BF6F
:1055B0007A48C06C40F004007849C8640846C06C62
:1055C00000F00400019000BF00BF00BF0846C06C9F
:1055D00040F00100C8640846C06C00F00100019072
:1055E00000BF00BF00BF0846C06C40F00200C864A6
:1055F0000846C06C00F00200019000BF00BF0C2004
:105600001790032018900020199017A9644801F002
:10561000C9FB05201790032018900020199017A9A6
:105620004FF0904001F0BEFB02201790032018902D
:105630000020199017A95B4801F0B4FB5A485B4958
:10564000086005204860002158488160C1608021C1
:10565000016149004161890081612021C1614FF4EC
:105660004051016200E009E000F0DCFD08B1FEF706
:10567000D5FE00BF4D48606584628AE04C492068D1
:105680008842FAD1C00102908003139002A802F070
:10569000A7FC08B1FEF7C2FE3F480068401C3E4927
:1056A00008600846006801280DD100BF3B48C06C67
:1056B00040F400503949C8640846C06C00F40050FA
:1056C000019000BF00BF00BF3448C06C40F0040030
:1056D0003249C8640846C06C00F00400019000BF65
:1056E00000BF00BF0846C06C40F00100C864084617
:1056F000C06C00F00100019000BF00BF00BF084671
:10570000C06C40F00200C8640846C06C00F00200A3
:10571000019000BF00BF3120179003201890002097
:10572000199017A91E4801F03DFBF02017900320A7
:1057300018900020199017A94FF0904001F032FB0B
:105740004FF400601790032018900020199017A9BB
:10575000144801F027FB144814301649086024202F
:105760004860002113488160C160802101614900C7
:105770004161890081612021C1610021016200F045
:1057800051FD08B1FEF74AFE00BF0A486065846219
:1057900000BF1CB010BD000000000020001002403F
:1057A000000800480004004808000240640100208E
:1057B00000010050C40100202DE9F04104460F46CD
:1057C00090462168B1F1A04F03D0404A2168914230
:1057D00001D13F4900E03F49084605F080FF0646F9
:1057E000206805F0A3FF00286CD100BF94F8580092
:1057F000012802D10220BDE8F081012084F8580080
:1058000000BF35492068884201D1012000E0002016
:1058100020B91EB1052E01D0092E4DD12046FCF72E
:1058200059FF0546002D42D1E06D40F601618843E5
:1058300040F48070E06525492068884202D14FF02D
:10584000A04006E025492068884201D1244800E0B4
:1058500020682168884200D01EB9E06D20F48010D5
:10586000E065E06D00F4805020B1206E20F006006D
:10587000206601E0002020661C202168086000BF2F
:10588000002084F8580000BF2068C06840F0010084
:105890002168C860226802F1400143463A46606DC3
:1058A00000F02AFD0546206805F04AFF0BE000BF26
:1058B000002084F8580006E0012500BF002084F88D
:1058C000580000E00225284695E70000000100503E
:1058D0000003005000070050000600500005005073
:1058E000000400502DE9F843044600200090804653
:1058F00014B94FF0010881E12068006800F0004011
:10590000B0F1004F02D14FF0010877E1607F28B974
:10591000002020772062204600F07EF92068006891
:1059200000F40007D4E90110084361690843E16805
:105930000843216940EA010620680068B14908402F
:105940003043216808602068006800F4000088B1D6
:1059500087B9AD480068AD49B0FBF1F0401C00EBE1
:1059600080008000009002E00098401E00900098A7
:105970000028F9D1A6492068884202D14FF40010CE
:1059800025E0A349091D2068884202D14FF4800018
:105990001DE09F4908312068884201D1800616E049
:1059A0009B490C312068884202D14FF080400EE0C4
:1059B000974910312068884201D1C00607E0944918
:1059C00014312068884201D1012000E00220054600
:1059D000207E00F0030000287ED0207E00F0100022
:1059E000D0B18B4914312068884203D0091D20684A
:1059F000884207D100BF874800682843854908606E
:105A000000BF24E000BF8348203800682843814954
:105A10002039086000BF1AE07D49143120688842AF
:105A200003D0091D2068884207D100BF794800686B
:105A3000A8437849086000BF09E000BF75482038D6
:105A40000068A84373492039086000BF00BF207E6A
:105A500000F02000E0B16E4914312068884203D084
:105A6000091D2068884209D100BF6A48001D0068EE
:105A700028436849091D086000BF26E000BF65484B
:105A80001C380068284363491C39086000BF1CE0CB
:105A90005F4914312068884203D0091D206888427C
:105AA00009D100BF5B48001D0068A8435949091D82
:105AB000086000BF09E000BF56481C380068A843D2
:105AC00054491C39086000BF00BF51491431206897
:105AD000884205D0091D00E06CE02068884203D1AF
:105AE000284605F067FE02E0284605F05DFE207EB0
:105AF00000F00200E0B1464914312068884203D02A
:105B0000091D2068884209D100BF4248001F006873
:105B100028434049091F086000BF19E000BF3D4805
:105B20002438006828433B492439086000BF0FE04F
:105B3000374914312068884203D0091D2068884203
:105B400003D1284605F044FE02E0284605F038FE61
:105B5000207E00F00100E0B12D4914312068884218
:105B600003D0091D2068884209D100BF29480838A0
:105B70000068284327490839086000BF3AE000BFA1
:105B8000244828380068284322492839086000BF83
:105B900030E01F4914312068884203D0091D206875
:105BA000884203D1284605F023FE23E0284605F06D
:105BB00017FE1FE0164914312068884203D0091DE2
:105BC0002068884203D1284605F002FE02E02846FC
:105BD00005F0F6FD0E4914312068884203D0091DF6
:105BE0002068884203D1284605F002FE02E02846DC
:105BF00005F0F6FD607F08B9012060774046BDE8FA
:105C0000F88300000F7E00FF10000020400D03000D
:105C1000000201402804014010B586B0044614215A
:105C200001A8FCF741FB2E492068884219D100BF2A
:105C30002C48C06C40F001002A49C8640846C06C7A
:105C400000F00100009000BF00BF0220019003207F
:105C500002900020039001A94FF0904001F0A2F8BB
:105C60003BE01F49091D2068884219D100BF1D482B
:105C7000C06C40F001001B49C8640846C06C00F0CD
:105C80000100009000BF00BF082001900320029097
:105C90000020039001A94FF0904001F083F81CE030
:105CA0000F4908312068884217D100BF0D48C06CE9
:105CB00040F004000B49C8640846C06C00F00400C2
:105CC000009000BF00BF022001900320029000203E
:105CD000039001A9044801F065F806B010BD00006A
:105CE00000020140001002400008004808B50146CB
:105CF00000220092002009B9012024E00A681268FD
:105D000002F00042B2F1004F01D101201BE04A7FB6
:105D1000012A17D10A68126842F001020B681A6062
:105D200002224A77084A1268084BB2FBF3F202EBF0
:105D30008202009202E0009A521E0092009A002A0B
:105D4000F9D100E0012008BD1000002080841E0071
:105D50002DE9F84F04460D4616460020009004B188
:105D600015B90120BDE8F88FE869012800D100BF0E
:105D7000A868042800D103E06869022800D100BFA8
:105D800000BF6079012801D10220EBE7012060719A
:105D900000BF02202071A868042859D101F0FEF844
:105DA0008246E6B911E001F0F9F8A0EB0A000128FB
:105DB0000BD92068406B00F4004030B1206940F0FE
:105DC0000800206103202071CCE72068406B00F4BC
:105DD00000400028E7D1686A216808641BE011E0F0
:105DE00001F0DCF8A0EB0A0001280BD92068406B19
:105DF00000F0004030B1206940F00800206103202D
:105E00002071AFE72068406B00F000400028E7D128
:105E1000686A216848642068806C06F0100240F2CD
:105E2000FF319140884306F01002A96A914008436F
:105E3000216888642068C06C06F01002FF21914040
:105E4000884306F01002E96A914008432168C8645B
:105E5000E86901280FD12068876B06F010011F2028
:105E600088408743D5F8208006F0100008FA00F03B
:105E70000743206887632068C76B06F0100107207E
:105E800088408743A869012802D14FF000090CE03F
:105E9000A869022802D14FF0010906E0686910B92B
:105EA0004FF0010901E04FF000096969A868084353
:105EB00040EA090806F010014FF4807088408743DB
:105EC0002879012801D1000200E0002040EA0808FA
:105ED00006F010014FF4007088408743687901286C
:105EE00001D1400200E0002040EA080827F44047C2
:105EF000286802280FD102F091FB83462C498B457C
:105F000002D947F4004708E02A48834502D947F4FC
:105F1000804702E001E02868074306F0100108FA14
:105F200001F007432068C7632068006806F010028C
:105F30004FF48041914088432168086020680768D9
:105F400006F0100140F6FE7088408743D5F80C80BB
:105F500006F0100108FA01F0074320680760206886
:105F6000006806F01002C021914088432168086053
:105F7000287BC0F38308287CC0F3830048EA00280C
:105F80002068006E06F0100240F60F7191408843C1
:105F900006F0100108FA01F10843216808660120A3
:105FA000207100BF0020607100BF0098DAE6000099
:105FB0000068890900B4C40410B504460CB9012076
:105FC00010BD207920B900206071204600F008F84B
:105FD0000220207100202061012020710020EFE7C5
:105FE00008B5124A016891420DD100BF1049C96C31
:105FF00041F480310E4AD1641146C96C01F48031FC
:10600000009100BF11E00B4A016891420DD100BF21
:106010000749C96C41F48021054AD1641146C96C15
:1060200001F48021009100BF00BF08BD00080050AE
:10603000001002400010005078B504460020009087
:106040000CB9012078BD2068C06B01F010064FF438
:106050008075B540284000B900BF2068009029B97C
:1060600002F10800009D2844009004E002F11400B1
:10607000009D28440090009803600020E2E70000A3
:1060800018B502460AB9012018BD00BF5079012891
:1060900001D10220F8E70120507100BF02201071E9
:1060A0001068006801F010040123A340184313682E
:1060B00018601A4800681A4BB0FBF3F0401C0090BF
:1060C00002E00098401E009000980028F9D161B9C4
:1060D0001068006800F03E00022816D11068406881
:1060E00040F00100136858600FE01068006800F489
:1060F000781301F010040220A040834205D11068FB
:10610000406840F00200136858600120107100BF21
:106110000020507100BF00BFB6E700001000002053
:10612000400D030070B50446206C056820680668C1
:1061300094F8440000F01F01042088402840E0B19A
:1061400006F00400C8B12068006800F0200028B9FB
:106150002068006820F004002168086094F844007A
:1061600000F01F0104208840216C4860206B00284B
:1061700056D02046216B884752E094F8440000F046
:106180001F0102208840284018B306F0020000B327
:106190002068006800F0200040B92068006820F006
:1061A0000A0021680860012084F8250094F8440062
:1061B00000F01F0102208840216C486000BF0020D1
:1061C00084F8240000BFE06A50B32046E16A8847A3
:1061D00026E094F8440000F01F0108208840284081
:1061E000F0B106F00800D8B12068006820F00E0079
:1061F0002168086094F8440000F01F0101208840E5
:10620000216C48600120E06384F8250000BF002075
:1062100084F8240000BF606B10B12046616B884792
:1062200070BD000070B504460CB9012070BD304946
:10623000206888420BD22F492068401A1421B0FBF5
:10624000F1F0800060642B48083820640AE0284997
:106250002068401A1421B0FBF1F0800060642448EB
:1062600008382064022084F825002068056847F675
:10627000F0708543D4E9020108432169084361694C
:106280000843A1690843E1690843216A08430543BB
:10629000206805602046FDF7EBFFA068B0F5804F51
:1062A00001D100206060207900F07F00A16C0860BF
:1062B000D4E913104860606860B16068042809D8A8
:1062C0002046FDF7FDFF0020616D0860D4E916103F
:1062D000486003E000206065A065E0650020E063A1
:1062E000012084F82500002084F8240000BF9DE7E9
:1062F00008040240080002402DE9F04104460D4622
:1063000016461F464FF0000800BF94F824000128ED
:1063100002D10220BDE8F081012084F8240000BFF2
:1063200094F8250001283FD1022084F825000020A0
:10633000E0632068006820F00100216808603B46A7
:10634000324629462046FDF7CFFF206B30B120684A
:10635000006840F00E00216808600BE020680068CB
:1063600020F00400216808602068006840F00A00FE
:1063700021680860A06C006800F4803028B1A06C2F
:10638000006840F48070A16C0860606D28B1606D99
:10639000006840F48070616D08602068006840F01B
:1063A00001002168086006E000BF002084F8240096
:1063B00000BF4FF002084046ACE770B503461446F4
:1063C00093F85C5001F4C07000B100BF012D01D002
:1063D000022D7DD11868826D01F0070010B102F026
:1063E000010018B301F0380010B102F00200E8B16A
:1063F00001F4E07010B102F00400B8B101F4F05003
:1064000010B102F0080088B101F4604010B102F050
:10641000100058B101F4403010B102F0200028B152
:1064200001F47C0040B102F0400028B91868C06D4A
:1064300040F001001E68F06501F0070010B102F0A5
:10644000010018BB01F0380010B102F00200E8B9F9
:1064500001F4E07010B102F00400B8B901F4F0509A
:1064600010B102F0080088B901F4604010B102F0E8
:10647000100058B901F4403010B102F0200028B9E2
:1064800001F47C0040B102F0400028B11868C06DF2
:1064900040F002001E68F06501F0800030B118681D
:1064A000D0F8DC0020431E68C6F8DC0001F48070E0
:1064B00030B11868D0F8E00020431E68C6F8E0004C
:1064C0001868406D08431E687065002070BDFFE7C6
:1064D000186E40F0020018660120F7E72DE9F04140
:1064E00004460E461746706800B900E000BF94F8F5
:1064F0005C00022821D12068D0F8C40000F400100C
:1065000030B1206E40F4007020660120BDE8F081BB
:106510002068D0F8C400C0F301452B463A46314606
:106520002046FDF7C9FF0120A8402168C1F8CC0032
:106530000120A840A0650020E8E7206E40F0080098
:1065400020660120E2E7F0B5024692F85C60012E79
:1065500001D0022E23D1086880B9087A80070F7B0A
:1065600040EAC7600F8A40EA07404F6940EA0704E3
:10657000176C486807EB80031C600EE00F7B08690E
:1065800040EA47740F7A486940EA8775576C486853
:1065900007EBC0031C601B1D1D600020F0BD106ECA
:1065A00040F0020010660120F8E770B50446049D33
:1065B00094F85C00012810D1080140EA820040EA0A
:1065C000430028432668D6F8806026F03F06304313
:1065D0002668C6F88000002070BD206E40F00400E0
:1065E00020660120F8E730B5034693F85C40012CA3
:1065F00001D0022C0ED1012A05D11868806D884384
:106600001D68A86504E01868806D08431D68A865CA
:10661000002030BD186E40F0020018660120F8E737
:10662000704770472DE9F04304460E469C4694F8A7
:106630005C80B8F1020F7DD1402E26D12068D0F8C1
:10664000900000F00F0030B9206E40F4807020669A
:106650000120BDE8F0832068D0F89000C0F301234A
:106660002068D0F89000C0F3006040B12068D0F8F6
:106670008000C0F3402010B1581C00F0030303EB6E
:10668000C309A06C00EBC90124E02068D0F8980091
:1066900000F00F0028B9206E40F4807020660120C1
:1066A000D7E72068D0F89800C0F301232068D0F81D
:1066B0009800C0F3006040B12068D0F88000C0F3BB
:1066C000002010B1581C00F0030303EBC309E06C79
:1066D00000EBC901086800F080405060506820B9A4
:1066E0000868C0F38A40106003E0086820F060404A
:1066F0001060086800F000509060086800F00040EA
:106700001061091D088880B2D0610868C0F3034099
:10671000D060086800F480105061086800F4001030
:1067200090610868C0F3066010620868C00F50628C
:10673000091D00E018E00F46002503E0785D0CF825
:1067400005006D1CDFF82C90D06819F80000A842F5
:10675000F4D8402E03D12068C0F8943002E02068BD
:10676000C0F89C30002074E7206E40F008002066DE
:1067700001206EE7A011030801460A68D2F8C42080
:1067800002F00700704770472DE9FC5F044620685F
:10679000006D00F4E0572068406D07402068006DF0
:1067A00000F007082068406D00EA08082068006DC6
:1067B00000F038092068406D00EA09092068006D82
:1067C00000F4710A2068406D00EA0A0A2068006D32
:1067D00000F4602B2068406D00EA0B0B2068456DCB
:1067E0002068066DC6F3801040B1C5F3801028B153
:1067F0004020216808652046FFF7C5FFC6F300204A
:10680000A0B1C5F3002088B12068D0F8D80000906E
:106810002068D0F8E0000099084000904FF48070A4
:10682000216808652046009900F016FA2FB120680B
:1068300007653946204600F011FAB8F1000F06D07E
:106840002068C0F850804146204600F0CDF9B9F1EB
:10685000000F06D02068C0F850904946204600F04E
:10686000E1F9C6F3402048B1C5F3402030B14FF400
:10687000007021680865204600F0F2F9C6F3C010E8
:1068800098B1C5F3C01080B12068D0F8D400019051
:106890002068D0F8DC000199084001908020216830
:1068A00008652046019900F0D8F9C6F3403048B198
:1068B000C5F3403030B14FF40050216808652046E0
:1068C00000F0C9F9C6F3C03048B1C5F3C03030B1EB
:1068D0004FF4004021680865204600F0BBF9C6F37C
:1068E000803050B1C5F3803038B14FF4804021681A
:1068F0000865206E40F080002066BBF1000F06D0D6
:106900002068C0F850B059462046FFF78AFEBAF119
:10691000000F06D02068C0F850A0206E40EA0A00A0
:106920002066206E10B12046FFF77AFEBDE8FC9F7E
:1069300070B504460CB9012070BD814920688842B9
:1069400000D100BFA068B0F5407F00D100BF94F82F
:106950005C0028B9002084F85D00204600F0F4F8BF
:106960002068806920F010002168886100F016FB23
:1069700005460DE000F012FB401B0A2808D9206EE6
:1069800040F001002066032084F85C000120D3E77A
:106990002068806900F008000828EBD02068806932
:1069A00040F001002168886100F0F8FA05460DE02A
:1069B00000F0F4FA401B0A2808D9206E40F00100CC
:1069C0002066032084F85C000120B5E72068806918
:1069D00000F001000028EBD02068806940F0020040
:1069E0002168886156492068884202D1554960680B
:1069F0000860207C012806D12068806920F04000D2
:106A00002168886105E02068806940F040002168C5
:106A10008861607C012806D12068806940F480404C
:106A20002168886105E02068806920F48040216841
:106A30008861A07C012806D12068806920F48050FC
:106A40002168886105E02068806940F480502168F1
:106A500088612068806920F44070A168084321683B
:106A600088612068806920F0A4002168886120681E
:106A7000006920F0100021680861E068012806D153
:106A80002068806940F004002168886120E0E068A7
:106A9000F0B1E068022815D02068806940F08000DD
:106AA000216888612068006940F010002168086151
:106AB000E06803280CD12068806940F0200021683C
:106AC000886105E02068806940F0200021688861C5
:106AD000207E401E4106E069401E41EA0020216AF6
:106AE000491E0843A18A491E40EA01402168C86145
:106AF000A068B0F5407F0FD1A06A401EE16A491E30
:106B000040EA0121206B401E41EA0011A08C401E8A
:106B100041EA00402168C8602068D0F8C000E16BFD
:106B200008432168C1F8C0002046FDF783FC00201F
:106B3000A0652066012084F85C000020FCE60000CF
:106B4000006400400065004010B59CB0044614216C
:106B500017A8FBF7A9FB542102A8FBF7A5FB2049C6
:106B6000206888423AD1801402904003109002A815
:106B700001F036FA08B1FDF751FC00BF1948806DED
:106B800040F00070174988650846806D00F000707D
:106B9000019000BF00BF00BF0846C06C40F001007C
:106BA000C8640846C06C00F00100019000BF00BF3F
:106BB0004FF4C050179002201890002019901A909E
:106BC00009201B9017A9C00600F0ECF8002205214F
:106BD000152001F01DF9152001F006F91CB010BDBB
:106BE000006400400010024030B59BB004460D46E2
:106BF000402101A8FBF758FB01AB11AA4021204618
:106C0000FFF710FD1298B0F1804F04D101A911A82F
:106C100006F0A4F804E001A9149A1198FDF784FB8A
:106C20001BB030BD7047014691F85C0001280BD1C4
:106C3000022081F85C000868806920F001000A6881
:106C40009061002008667047086E40F004000866F6
:106C50000120F8E7704770477047704770470000A1
:106C60000349884202D10121024A11707047000095
:106C7000B802002086000020F0B50B4600217DE020
:106C800001258D4005EA0302002A76D03E4D8E088C
:106C900055F826408D072E0F0F25B5402C40B0F13A
:106CA000904F01D1002519E0384DA84201D10125AE
:106CB00014E0374DA84201D102250FE0354DA8421E
:106CC00001D103250AE0344DA84201D1042505E095
:106CD000324DA84201D1052500E006258E07360F6A
:106CE000B540A54223D12E4D2D6895432C4E3560DD
:106CF000351D2D689543361D3560294D0C352D68A1
:106D00009543274E0C363560351F2D689543361F49
:106D100035608D072E0F0F2505FA06F41A4D8E08E3
:106D200055F82650A543184E8F0846F82750056899
:106D30004F000326BE4035430560CE0800F1200514
:106D400055F826504E07F70E0F26BE40B543CF0824
:106D500000F1200646F82750C5684F000326BE40C4
:106D6000B543C560456801268E40B54345608568DA
:106D70004F000326BE40B5438560491C23FA01F548
:106D8000002D7FF47DAFF0BD0800014000040048F5
:106D900000080048000C004800100048001400489B
:106DA0000004014078B503460022D2E00126964057
:106DB0000D6805EA0604002C7BD00D7905F003056B
:106DC000012D04D00D7905F00305022D13D198682B
:106DD00056000325B540A8435600CD68B54028436A
:106DE0009860586801259540A8430D79C5F30015B2
:106DF0009540284358600D7905F00305032D07D110
:106E00000D7905F00305032D0CD18D68012D09D0F6
:106E1000D86856000325B540A84356008D68B54094
:106E20002843D8600D7905F00305022D13D1D6084B
:106E300003F1200555F826005507EE0E0F25B54045
:106E4000A8435607F60E0D69B5402843D60803F14E
:106E5000200545F82600186856000325B540A843CC
:106E60000D7905F003055600B540284318604D68BC
:106E700005F44035002D6BD000BF394D2D6E45F027
:106E80000105374E356635462D6E05F00105009536
:106E900000BF00BF4FEAB635960855F826009507A3
:106EA0002E0F0F25B540A843B3F1904F02D1002516
:106EB0001AE04DE02B4DAB4201D1012514E02A4DE3
:106EC000AB4201D102250FE0284DAB4201D1032591
:106ED0000AE0274DAB4201D1042505E0254DAB4228
:106EE00001D1052500E006259607360FB540284359
:106EF000214D960845F82600204D2868A0434D688E
:106F000005F4801505B120431C4D28602D1D28680F
:106F1000A0434D6805F4001505B12043174D2D1D04
:106F20002860164D2D1F2868A0434D6805F40035D4
:106F300005B12043114D2D1F28602D1F2868A04347
:106F40004D6805F4803505B120430C4D083D28609F
:106F5000521C0D68D540002D7FF428AF78BD00008D
:106F6000001002400004004800080048000C0048DF
:106F700000100048001400480800014008040140C7
:106F8000024613690B400BB1012000E0002070475E
:106F90000AB1816100E08162704700000148006829
:106FA0007047000004000020024600BF92F8DC0099
:106FB000012801D102207047012082F8DC0000BFC7
:106FC000022082F8DD00481C80B91068D0F8CC039C
:106FD00020F002031068C0F8CC331068D0F8CC035E
:106FE00040F001031068C0F8CC3318E01068D0F806
:106FF000CC0340F002031068C0F8CC331068D0F81E
:10700000CC0320F00C0008431368C3F8CC031068CD
:10701000D0F8CC0340F001031068C0F8CC33012055
:1070200082F8DD000020C6E770B504460D4616461E
:1070300094F8DD00022800D170BD00BF94F8DC0098
:10704000012801D10220F7E7012084F8DC0000BF0D
:10705000022084F8DD0032462946204602F092FEE6
:10706000012084F8DD0000BF002084F8DC0000BFB0
:1070700000BFE1E7024692F8DD00022800D1704728
:1070800000BF92F8DC00012801D10220F7E70120BF
:1070900082F8DC0000BF022082F8DD001068D0F822
:1070A000B833084663F31D001368C3F8B803012022
:1070B00082F8DD0000BF002082F8DC0000BF00BFC6
:1070C000DDE730B5034693F8DD00022800D130BD7E
:1070D00000BF93F8DC00012801D10220F7E701206E
:1070E00083F8DC0000BF022083F8DD00082938D0D7
:1070F00006DC012909D0022915D004295DD121E03F
:1071000010293DD0202958D148E01868D0F808044B
:1071100020F003000125946805EB440420431C681B
:10712000C4F8080452E01868D0F8080420F440704D
:107130004FF48075946845EA442420431C68C4F8E1
:10714000080443E01868D0F8080420F4403014899B
:107150004FF4803545EA444420431C68C4F80804D1
:1071600034E01868D0F8080420F04070147A4FF02A
:10717000807545EA446420431C68C4F8080425E08F
:107180001868D0F80C0420F003000125946805EB82
:10719000440420431C68C4F80C0417E01868D0F8B5
:1071A0000C0420F440704FF48075946845EA442440
:1071B00020431C68C4F80C0408E0072083F8DD00B5
:1071C00000BF002083F8DC0000BF00BF00BF93F8C1
:1071D000DD00072801D1012079E7012083F8DD00D7
:1071E00000BF002083F8DC0000BF00BF6FE7F0B5F0
:1071F00004460F46134694F8DD00022800D1F0BD86
:1072000000BF94F8DC00012801D10220F7E701203B
:1072100084F8DC0000BF022084F8DD002068D0F88C
:10722000D0232068D0F8D413187800F0010518781E
:10723000C0F34006082F57D006DC012F09D0022FDB
:107240001CD0042F7DD134E0102F68D0202FF9D12D
:107250007CE022F0FE02187900F00200024342EACC
:10726000850221F4803141EA0641187A00F0780065
:107270000243187B00F0800002438BE022F47E4240
:107280004FF4007C58680CEA0020024342EA852251
:1072900021F4003141EA46414FF4F04C98680CEA81
:1072A000002002434FF4004CD8680CEA002002434F
:1072B00070E022F47E0298884FF4003C0CEA004013
:1072C000024342EA854221F4802141EA864118893D
:1072D0004FF4F00C0CEA0040024398894FF4000C84
:1072E0000CEA0040024355E022F07E4218794FF04C
:1072F000007C0CEA0060024342EA856221F400212E
:1073000041EAC641187A4FF0F04C0CEA00600243A3
:10731000187B4FF0004C0CEA006002433AE021F089
:10732000FE01187900F00200014341EA850121F4D1
:10733000801141EA0651187A00F078000143187B69
:1073400000E01EE000F08000014323E021F47E41D4
:107350004FF4007C58680CEA0020014341EA852183
:1073600021F4001141EA46514FF4F04C98680CEAC0
:10737000002001434FF4004CD8680CEA0020014380
:1073800008E0072084F8DD0000BF002084F8DC005E
:1073900000BF00BF00BF94F8DD00072801D1012025
:1073A0002DE702F07F3C2068C0F8D0C348F280008F
:1073B00021EA0000D4F800C0CCF8D4032068D0F84B
:1073C000D00302F0803C40EA0C00D4F800C0CCF8B6
:1073D000D0032068D0F8D40348F2800C01EA0C0CEA
:1073E00040EA0C00D4F800C0CCF8D403012084F8A3
:1073F000DD0000BF002084F8DC0000BF00BFFEE617
:1074000010B5034693F8DD00022800D110BD00BF7F
:1074100093F8DC00012801D10220F7E7012083F86E
:10742000DC0000BF022083F8DD00082939D006DC2B
:10743000012909D0022916D004295FD122E01029A0
:107440003ED020295AD14AE010688000546840EAB2
:10745000C4101C68D4F8084424F0BC0420431C6801
:10746000C4F8080453E010688002546840EAC4304D
:107470001C68D4F8084424F43C4420431C68C4F835
:10748000080444E010888004948840EAC4501C68D2
:10749000D4F8084424F43C0420431C68C4F80804CD
:1074A00035E010788006147940EAC4701C68D4F87E
:1074B000084424F03C4420431C68C4F8080426E037
:1074C00010688000546840EAC4101C68D4F80C446A
:1074D00024F0BC0420431C68C4F80C0417E01068B6
:1074E0008002546840EAC4301C68D4F80C4424F488
:1074F0003C4420431C68C4F80C0408E0072083F8CF
:10750000DD0000BF002083F8DC0000BF00BF00BF2B
:1075100093F8DD00072801D1012077E7012083F8E7
:10752000DD0000BF002083F8DC0000BF00BF6DE776
:1075300010B501F001033BB10368D3F8D03362F317
:1075400000030468C4F8D03301F002033BB10368C0
:10755000D3F8D03362F308230468C4F8D03301F0C1
:1075600004033BB10368D3F8D03362F310430468DB
:10757000C4F8D03301F008033BB10368D3F8D0332B
:1075800062F318630468C4F8D03301F010033BB110
:107590000368D3F8D43362F300030468C4F8D43327
:1075A00001F020033BB10368D3F8D43362F308231E
:1075B0000468C4F8D43310BD024692F8DD000228F6
:1075C00000D1704700BF92F8DC00012801D10220F1
:1075D000F7E7012082F8DC0000BF022082F8DD001E
:1075E0001068D0F8D40320F0407001F040731843C5
:1075F0001368C3F8D403012082F8DD0000BF002027
:1076000082F8DC0000BF00BFDBE70000F8B50446ED
:107610000CB90120F8BD0220E03404F8030C00206E
:1076200020606060A060E06020616061A061E03C7B
:10763000207A00F0010008B33549206888420DD156
:1076400000BF3448006E40F080603249086608464A
:10765000006E00F08060009000BF00BF20680668E8
:1076600026F44046208A00F44040064326F4405663
:10767000A08A00F44050064320680660204600F0CF
:107680004BF8207A00F0020048B12068066826F422
:107690004076A08900F4407006432068066001200F
:1076A00084F8DD0000BF002084F8DC0000BF002566
:1076B00029E00021C5EBC50204F1180040F82210B2
:1076C000C5EBC50200EB82004160C5EBC50204F1C9
:1076D000180000EB82008160C5EBC50204F11800C0
:1076E00000EB8200C160C5EBC50204F1180000EB9D
:1076F00082000161C5EBC50204F1180000EB8200B5
:107700008161681CC5B2062DD3D9002082E7000034
:10771000006801400010024038B504461249206854
:1077200088421FD100BF1148006E40F080600F49B1
:1077300008660846006E00F08060009000BF00BF41
:1077400000221146492000F063FB492000F04CFB69
:1077500007480068D0F8900340F0580104480068DA
:10776000C0F8901338BD00000068014000100240CE
:107770001C03002010B586B00446142101A8FAF7B6
:1077800093FD1149206888421CD100BF0F48C06C8E
:1077900040F002000D49C8640846C06C00F00200C9
:1077A000009000BF00BF4FF4704001900220029093
:1077B00000200390032004900D20059001A90448A7
:1077C000FFF7F0FA06B010BD00680140001002405B
:1077D0000004004870B504460D46FFF7DFFB06467F
:1077E0000CE0681C50B1FFF7D9FB801BA84200D801
:1077F00025B9072084F8DD00032070BD2068D0F88B
:107800008803C0F300400028EBD0012084F8DD009D
:1078100000BF002084F8DC0000BF00BFEDE770B5BA
:1078200004460D46164694F8DD00022800D170BDCE
:10783000022084F8DD00062D04D13146204602F0F6
:1078400056FC04E032462946204602F036FD01206F
:1078500084F8DD000020EAE730B5044694F8DD0046
:10786000022800D130BD00BF94F8DC00012801D10E
:107870000220F7E7012084F8DC0000BF022084F832
:10788000DD00062928D1012A06D0022A08D0042AC0
:107890000AD0082A10D10BE018682568E86114E0C6
:1078A00018682568686210E018682568A8620CE00E
:1078B00018682568E86208E0072084F8DD0000BF4A
:1078C000002084F8DC0000BF00BF00BF94F8DD009A
:1078D00007287DD10120C5E7012A06D0022A0BD056
:1078E000042A4CD0082A74D150E01D6820688030EA
:1078F00000EBC110C5619AE01D682068803000EB84
:10790000C1104562586868B32068803000EBC11030
:10791000006820F440552068803000EBC1100560FD
:107920002068803000EBC11000685D68284325683E
:10793000803505EBC11528605868B0F5005F06D1A9
:107940009D682068803000EBC110C56116E0586862
:10795000B0F5405F12D19D682068803000EBC11007
:1079600085620BE02068803000EBC110006820F4D5
:1079700040502568803505EBC115286057E01D682B
:107980002068803000EBC110856250E01D682068DF
:10799000803000EBC110C562586888B32068803021
:1079A00000EBC110006820F440452068803000EBF7
:1079B000C11005602068803000EBC11000685D6870
:1079C00040EA85052068803000EBC110056001E0C9
:1079D00034E023E05868B0F5005F06D19D68206868
:1079E000803000EBC110C56117E05868B0F5405F0A
:1079F00013D19D682068803000EBC11085620CE0D7
:107A0000FFE72068803000EBC110006820F44040A0
:107A10002568803505EBC115286008E0072084F84B
:107A2000DD0000BF002084F8DC0000BF00BF00BF05
:107A300094F8DD00072801D1012013E7012084F824
:107A4000DD0000BF002084F8DC0000BF00BF09E7B4
:107A5000024600BF92F8DC00012801D102207047E5
:107A6000012082F8DC0000BF022082F8DD001068EF
:107A70000068084313681860012082F8DD0000BF29
:107A8000002082F8DC0000BF00BFE8E72DE9F041EC
:107A900004460D4616461F4694F8DD00022801D123
:107AA000BDE8F08100BF94F8DC00012801D102207C
:107AB000F6E7012084F8DC0000BF022084F8DD0036
:107AC0003B4632462946204602F074FB012084F8EA
:107AD000DD0000BF002084F8DC0000BF00BFDFE74E
